:020000040800F2
:10000000A80400209D010008251C0008F51900081F
:10001000211C0008A902000821240008000000009B
:10002000000000000000000000000000991C000813
:10003000AD02000800000000951C0008F11C00083B
:10004000B7010008B7010008B7010008B7010008B0
:10005000B7010008B7010008B7010008B7010008A0
:10006000B7010008B7010008B7010008B701000890
:10007000B7010008B7010008B7010008B701000880
:10008000B7010008B7010008B7010008B701000870
:10009000B7010008B7010008B7010008B701000860
:1000A000B7010008B7010008B7010008B701000850
:1000B000B7010008B7010008B7010008B701000840
:1000C000B7010008B7010008B7010008B701000830
:1000D000B7010008B7010008B7010008B701000820
:1000E000B7010008B7010008B7010008B701000810
:1000F000B7010008B7010008B7010008B701000800
:10010000B7010008B7010008B7010008B7010008EF
:10011000B7010008B7010008B7010008B7010008DF
:10012000B7010008B7010008B7010008B7010008CF
:10013000B7010008B7010008B7010008B7010008BF
:10014000B7010008B7010008B7010008B7010008AF
:10015000B7010008B7010008B7010008B70100089F
:10016000B7010008B7010008B7010008B70100088F
:10017000B7010008B7010008B7010008000000003F
:10018000B7010008B7010008DFF80CD000F07AF8DA
:1001900000480047B5240008A8040020064880470E
:1001A00006480047FEE7FEE7FEE7FEE7FEE7FEE75C
:1001B000FEE7FEE7FEE7FEE7B51D0008890100083F
:1001C0002DE9F05F0546002092469B46884606468C
:1001D000814640241BE0284641464746224600F01F
:1001E00041F853465A46C01A914110D31146184659
:1001F000224600F028F82D1A67EB01084F462246E8
:100200000120002100F01FF817EB00094E41201ECD
:10021000A4F10104DFDC484631462A464346BDE8E6
:10022000F09FD2B201E000F8012B491EFBD27047CB
:100230000022F6E710B513460A4604461946FFF7B2
:10024000F0FF204610BD202A04DB203A00FA02F11C
:10025000002070479140C2F1200320FA03F31943B4
:1002600090407047202A04DB203A21FA02F0002156
:10027000704721FA02F3D040C2F1200291400843B6
:1002800019467047064C074D06E0E06840F0010350
:1002900094E8070098471034AC42F6D3FFF778FF94
:1002A000D0280008F0280008FFE7FEE770470000AC
:1002B00072B6FFE7FEE700008EB00D900C910020B3
:1002C0000A90099008900B90FFE70B980F2800F216
:1002D000CC81FFE70B99012088400A900C980068B8
:1002E0000A990840099009980A99884240F0B88113
:1002F000FFE70C98406800F00300012807D0FFE7F3
:100300000C98406800F0030002282FD1FFE70D98F9
:10031000806808900B984100032000FA01F10898CA
:10032000884308900C98C0680B99490000FA01F1C5
:1003300008980843089008980D9988600D984068BF
:1003400008900B99012000FA01F108988843089061
:100350000C984068C0F300100B9900FA01F108985E
:100360000843089008980D994860FFE70C9840688A
:1003700000F00300032818D0FFE70D98C06808902C
:100380000B984100032000FA01F108988843089077
:100390000C9880680B99490000FA01F1089808430D
:1003A000089008980D99C860FFE70C98406800F025
:1003B0000300022826D1FFE70D980B996FF0030286
:1003C00002EA51010844006A08900B9800F0070007
:1003D00081000F2000FA01F10898884308900C98DA
:1003E00000690B9901F00701890000FA01F10898F2
:1003F0000843089008980D990B9B02EA5302114498
:100400000862FFE70D98006808900B9841000320F0
:1004100000FA01F10898884308900C98406800F0B1
:1004200003000B99490000FA01F10898084308906D
:1004300008980D9908600C9880798007002800F0D2
:100440000E81FFE7FFE70020079043F64400C4F267
:100450000200016841F480410160006800F48040BE
:1004600007900798FFE70B9820F0030043F6080178
:10047000C4F20101405808900B9800F0030081007D
:100480000F2000FA01F10898884308900D98002188
:10049000C4F20201884203D1FFE7002006905EE02B
:1004A0000D9840F20041C4F20201884203D1FFE7F7
:1004B0000120059050E00D9840F60001C4F20201C1
:1004C000884203D1FFE70220049042E00D9840F6F5
:1004D0000041C4F20201884203D1FFE703200390E8
:1004E00034E00D9841F20001C4F20201884203D1C8
:1004F000FFE70420029026E00D9841F20041C4F28B
:100500000201884203D1FFE70520019018E00D9811
:1005100041F60001C4F20201884203D1FFE7062040
:1005200000900AE00D9941F60042C4F20202082050
:10053000914208BF07200090FFE700980190FFE775
:1005400001980290FFE702980390FFE70398049058
:10055000FFE704980590FFE705980690FFE70698E7
:10056000C0B20B9901F00301890000FA01F108986B
:100570000843089008980B9921F0030143F60802FC
:10058000C4F20102885043F60840C4F2010000683A
:10059000089009990898884308900C988079C006BB
:1005A000002805D5FFE70999089808430890FFE758
:1005B000089843F60841C4F20101086043F60C4074
:1005C000C4F20100006808900999089888430890CF
:1005D0000C9880798006002805D5FFE709990898CE
:1005E00008430890FFE7089843F60C41C4F2010164
:1005F000086043F60440C4F20100006808900999BD
:100600000898884308900C9880798007002805D5C1
:10061000FFE70999089808430890FFE7089843F610
:100620000441C4F20101086043F60040C4F2010035
:100630000068089009990898884308900C98807978
:10064000C00728B1FFE70999089808430890FFE719
:10065000089843F60041C4F201010860FFE7FFE794
:10066000FFE70B9801300B902FE60EB070470000AB
:1006700082B00190ADF802108DF801209DF80100C4
:1006800028B1FFE7BDF802000199886105E0BDF8D7
:100690000200000401998861FFE702B07047000082
:1006A00040F2A000C2F200000068704740F208006B
:1006B000C2F20000027840F2A001C2F20001086814
:1006C000104408607047000080B543F60041C4F252
:1006D0000201086840F400700860086840F4806017
:1006E0000860086840F480700860032000F080F81B
:1006F0000F2000F005F800F03BF8002080BD00005E
:1007000080B582B0009040F20400C2F200000068A0
:1007100040F20801C2F200010A784FF47A71B1FB8D
:10072000F2F1B0FBF1F000F071FD20B1FFE7012024
:100730008DF8070018E000980F280DD8FFE7009902
:100740004FF0FF30002200F039F8009840F20C0121
:10075000C2F20001086003E001208DF8070003E009
:1007600000208DF80700FFE79DF8070002B080BD6C
:1007700082B0FFE70020019043F64400C4F202007B
:10078000016841F480410160006800F480400190FC
:100790000198FFE7FFE70020009043F64000C4F215
:1007A0000200016841F080510160006800F0805053
:1007B00000900098FFE702B07047000080B586B057
:1007C0008DF81700049103920020029001F02AFE98
:1007D00002909DF91700019002980499039A01F084
:1007E00023FA0146019801F025FE06B080BD000005
:1007F00080B582B00190019801F03EFE02B080BD4C
:1008000080B584B002900191029820B9FFE70120E1
:100810008DF80F0021E1019843F60041C4F2020176
:10082000096801F00701884212D9FFE7019943F6F0
:100830000040C4F202000170006800F00700019956
:10084000884204D0FFE701208DF80F0005E1FFE7A3
:1008500002980078800700282AD5FFE702980078E0
:100860004007002809D5FFE743F60801C4F202015A
:10087000086840F4E0500860FFE70298007800073D
:10088000002809D5FFE743F60801C4F20201086811
:1008900040F460400860FFE743F60801C4F202013B
:1008A000086820F0F000029A926810430860FFE7A1
:1008B00002980078C00700286ED0FFE702984068D1
:1008C000012811D1FFE743F60000C4F202000068DE
:1008D00000F400310020B0EB514F04D1FFE70120BC
:1008E0008DF80F00B9E02CE002984068022805D08E
:1008F000FFE702984068032811D1FFE743F60000A4
:10090000C4F20200006800F000710020B0EB516FEB
:1009100004D1FFE701208DF80F009EE010E043F6C0
:100920000000C4F20200006800F002010020B0EBF9
:10093000510F04D1FFE701208DF80F008DE0FFE794
:10094000FFE743F60801C4F20201086820F0030043
:10095000029A526810430860FFF7A2FE0090FFE77A
:1009600043F60800C4F20200006800F00C0002998F
:100970004968B0EB810F0ED0FFE7FFF791FE0099B9
:10098000401A41F28931884204D3FFE703208DF8F1
:100990000F0062E0E4E7FFE7019843F60041C4F28C
:1009A0000201096801F00701884212D2FFE70199AC
:1009B00043F60040C4F202000170006800F0070036
:1009C0000199884204D0FFE701208DF80F0044E030
:1009D000FFE702980078400700280CD5FFE743F6B0
:1009E0000801C4F20201086820F4E050029AD268BB
:1009F00010430860FFE702980078000700280DD533
:100A0000FFE743F60801C4F20201086820F46040E1
:100A1000029A126940EAC2000860FFE700F022F87B
:100A200043F60801C4F202010968C9B20A0942F694
:100A3000C001C0F60001895CC84040F20401C2F266
:100A40000001086040F20C00C2F200000068FFF7ED
:100A500057FE00208DF80F00FFE79DF80F0004B04F
:100A600080BD000080B586B0002005900490039002
:100A7000029043F60800C4F20200006800F00C0087
:100A80000146019140B1FFE7019804280AD0FFE731
:100A9000019808280CD04FE042F20040C0F2F40068
:100AA00002904FE041F60030C0F2B700029049E0FA
:100AB00043F60400C4F20200016801F03F01059111
:100AC00000684002002813D5FFE743F60400C4F293
:100AD00002000068C0F3881041F60031C0F2B7018F
:100AE000A0FB0101059A0023FFF76AFB049012E0C6
:100AF00043F60400C4F202000068C0F3881042F21A
:100B00000041C0F2F401A0FB0101059A0023FFF7A8
:100B100057FB0490FFE743F60400C4F202000068AC
:100B200000F44031022000EBD13003900498039987
:100B3000B0FBF1F0029005E042F20040C0F2F40098
:100B40000290FFE7029806B080BD000080B586B035
:100B50000490049820B9FFE701208DF8170050E3B6
:100B600004980078C007002800F0A580FFE743F64E
:100B70000800C4F20200006800F00C00042813D042
:100B8000FFE743F60800C4F20200006800F00C0022
:100B900008281ED1FFE743F60400C4F202000068F3
:100BA0004002002815D5FFE743F60000C4F202001A
:100BB000006800F400310020B0EB514F08D0FFE78F
:100BC0000498406820B9FFE701208DF8170018E36A
:100BD00070E0FFE704984068B0F5803F09D1FFE777
:100BE00043F60001C4F20201086840F48030086056
:100BF00020E004984068B0F5A02F0DD1FFE743F640
:100C00000001C4F20201086840F48020086008680E
:100C100040F4803008600CE043F60001C4F20201A9
:100C2000086820F480300860086820F4802008609C
:100C3000FFE7FFE7FFE704984068E8B1FFE7FFF749
:100C40002FFD0390FFE743F60000C4F202000068A6
:100C500000F400310020B0EB514F0CD1FFE7FFF75B
:100C60001FFD0399401A652804D3FFE703208DF880
:100C70001700C6E2E7E71CE0FFF712FD0390FFE76D
:100C800043F60000C4F20200006800F400310020C6
:100C9000B0EB514F0CD0FFE7FFF702FD0399401A6C
:100CA000652804D3FFE703208DF81700A9E2E7E7E2
:100CB000FFE7FFE7FFE7049800788007002840F18E
:100CC0009680FFE743F60800C4F20200006810F0C7
:100CD0000C0F13D0FFE743F60800C4F202000068CF
:100CE00000F00C0008282CD1FFE743F60400C4F202
:100CF000020000684002002823D4FFE743F600000A
:100D0000C4F20200006800F002010020B0EB510FB5
:100D100009D0FFE70498C068012804D0FFE701204C
:100D20008DF817006DE243F60001C4F20201086875
:100D300020F0F800049A126940EAC2000860FFE758
:100D400054E00498C06870B3FFE70021C4F2472163
:100D500001200860FFF7A4FC0390FFE743F60000C2
:100D6000C4F20200006800F002010020B0EB510F55
:100D70000CD1FFE7FFF794FC0399401A032804D332
:100D8000FFE703208DF817003BE2E7E743F6000199
:100D9000C4F20201086820F0F800049A126940EADF
:100DA000C200086021E00021C4F247210020086051
:100DB000FFF776FC0390FFE743F60000C4F2020061
:100DC000006800F002010020B0EB510F0CD0FFE7EB
:100DD000FFF766FC0399401A032804D3FFE70320BA
:100DE0008DF817000DE2E7E7FFE7FFE7FFE704985C
:100DF0000078000700284BD5FFE70498406918B336
:100E0000FFE740F68061C4F2472101200860FFF748
:100E100047FC0390FFE743F67400C4F20200006849
:100E200000F002010020B0EB510F0CD1FFE7FFF7FB
:100E300037FC0399401A032804D3FFE703208DF8F9
:100E40001700DEE1E7E722E040F68061C4F24721C7
:100E500000200860FFF724FC0390FFE743F67400CE
:100E6000C4F20200006800F002010020B0EB510F54
:100E70000CD0FFE7FFF714FC0399401A032804D3B2
:100E8000FFE703208DF81700BBE1E7E7FFE7FFE787
:100E9000049800784007002840F1CE80FFE700204A
:100EA0008DF8070043F64000C4F202000068C0005D
:100EB000002815D4FFE7FFE70020009043F640002C
:100EC000C4F20200016841F080510160006800F046
:100ED000805000900098FFE701208DF80700FFE7A1
:100EE00047F20000C4F200000068C005002822D4C8
:100EF000FFE747F20001C4F20001086840F4807087
:100F00000860FFF7CDFB0390FFE747F20000C4F253
:100F100000000068C00500280CD4FFE7FFF7C0FB05
:100F20000399401A032804D3FFE703208DF8170024
:100F300067E1EAE7FFE7FFE704988068012809D145
:100F4000FFE743F67001C4F20201086840F00100B7
:100F500008601FE00498806805280DD1FFE743F67C
:100F60007001C4F20201086840F0040008600868DB
:100F700040F0010008600CE043F67001C4F2020189
:100F8000086820F001000860086820F0040008608C
:100F9000FFE7FFE7FFE704988068F8B1FFE7FFF796
:100FA0007FFB0390FFE743F67000C4F20200006885
:100FB00000F002010020B0EB510F0ED1FFE7FFF768
:100FC0006FFB0399401A41F28931884204D3FFE74D
:100FD00003208DF8170014E1E5E71EE0FFF760FB42
:100FE0000390FFE743F67000C4F20200006800F0CF
:100FF00002010020B0EB510F0ED0FFE7FFF750FBCE
:101000000399401A41F28931884204D3FFE7032053
:101010008DF81700F5E0E5E7FFE79DF807000128E8
:1010200009D1FFE743F64001C4F20201086820F04D
:1010300080500860FFE7FFE704988069002800F00F
:10104000DC80FFE743F60800C4F20200006800F00D
:101050000C00082800F08580FFE7049880690228CA
:101060005CD1FFE76021C4F2472100200860FFF750
:1010700017FB0390FFE743F60000C4F2020000688C
:1010800000F000710020B0EB516F0CD0FFE7FFF7CC
:1010900007FB0399401A032804D3FFE703208DF8C8
:1010A0001700AEE0E7E70499C869D1F820C04B6AA1
:1010B0008A6A40EA0C0040EA8310D2034FF6FF73BD
:1010C0009A43A2F580321043C96A40EA016043F6B0
:1010D0000401C4F2020108606021C4F2472101202A
:1010E0000860FFF7DDFA0390FFE743F60000C4F263
:1010F0000200006800F000710020B0EB516F0CD1CD
:10110000FFE7FFF7CDFA0399401A032804D3FFE75E
:1011100003208DF8170074E0E7E721E06021C4F2B6
:10112000472100200860FFF7BBFA0390FFE743F672
:101130000000C4F20200006800F000710020B0EB73
:10114000516F0CD0FFE7FFF7ABFA0399401A032861
:1011500004D3FFE703208DF8170052E0E7E7FFE72D
:101160004AE004988069012804D1FFE701208DF846
:10117000170046E043F60400C4F202000068029043
:1011800004988069012831D0FFE7029800F48000BC
:101190000499C969884229D1FFE7029800F03F000D
:1011A0000499096A884221D1FFE7029847F6C07185
:1011B00008400499496AB0EB811F17D1FFE70298F4
:1011C00000F440300499896AC9034FF6FF729143D5
:1011D000A1F58031884209D1FFE7029800F07060E4
:1011E0000499C96AB0EB016F04D0FFE701208DF8C4
:1011F000170006E0FFE7FFE7FFE700208DF8170084
:10120000FFE79DF8170006B080BD000080B582B0F2
:101210000190019800F042FD02B080BD85B00390BE
:101220000291FFE7039890F83C00012804D1FFE702
:1012300002208DF813007EE00399012081F83C0024
:10124000FFE7FFE70399022081F83D00039800685B
:10125000406801900398006880680090019820F031
:10126000700001900298016801980843019001986C
:10127000039909684860039800680021C4F20101DD
:1012800088423CD0FFE703980068B0F1804F36D029
:10129000FFE70398006840F20041C4F20001884271
:1012A0002DD0FFE70398006840F60001C4F200016A
:1012B000884224D0FFE70398006840F60041C4F25A
:1012C000000188421BD0FFE70398006840F200410C
:1012D000C4F20101884212D0FFE70398006844F28B
:1012E0000001C4F20101884209D0FFE703980068B9
:1012F00041F60001C4F2000188420ED1FFE70098D8
:1013000020F0800000900298416800980843009007
:101310000098039909688860FFE70399012081F824
:101320003D00FFE70399002081F83C00FFE7002023
:101330008DF81300FFE79DF8130005B0704700001B
:1013400080B582B00090009820B9FFE701208DF8A9
:1013500007003FE0009890F83D0040B9FFE7009992
:10136000002081F83C00009800F038F8FFE7009971
:10137000022081F83D00009951F8040B00F024FD93
:101380000099012081F84600FFE70099012081F8CB
:101390003E00009981F83F00009981F840000099D3
:1013A00081F84100FFE7FFE70099012081F8420042
:1013B000009981F84300009981F84400009981F870
:1013C0004500FFE70099012081F83D0000208DF8DD
:1013D0000700FFE79DF8070002B080BD83B00290D0
:1013E000029800680021C4F20101884212D1FFE78F
:1013F000FFE70020019043F64400C4F202000168B8
:1014000041F001010160006800F0010001900198C5
:10141000FFE71BE00298006840F60041C4F20001BB
:10142000884212D1FFE7FFE70020009043F640001A
:10143000C4F20200016841F008010160006800F098
:10144000080000900098FFE7FFE7FFE703B0704750
:1014500080B586B00490039100208DF80B00FFE763
:10146000049890F83C00012804D1FFE702208DF891
:101470001700ABE00499012081F83C00FFE7FFE78B
:101480000499022081F83D0004980068806801906A
:10149000019820F077000190019820F47F4001909E
:1014A00001980499096888600398006800900028F2
:1014B00072D0FFE7009810286ED0FFE70098202830
:1014C0006AD0FFE70098302866D0FFE700984028F0
:1014D00055D0FFE70098502837D0FFE700986028E4
:1014E00040D0FFE7009870280BD0FFE70098B0F5D8
:1014F000805F05D0FFE70098B0F5005F16D052E09E
:1015000055E004980068039B5A689968DB6800F00E
:1015100049FD0498006880680190019840F07700C8
:101520000190019804990968886040E00498006877
:10153000039B5A689968DB6800F034FD04980168E1
:10154000886840F48040886031E004980068039A1D
:101550005168D26800F012FF04980068502100F032
:101560003BFD24E004980068039A5168D26800F0BB
:101570002DFF04980068602100F02EFD17E004980C
:101580000068039A5168D26800F0F8FE0498006879
:10159000402100F021FD0AE00498006803990968E1
:1015A00000F01AFD03E001208DF80B00FFE704991D
:1015B000012081F83D00FFE70499002081F83C00FC
:1015C000FFE79DF80B008DF81700FFE79DF8170067
:1015D00006B080BD80B588B00790002006900590C9
:1015E0000490039002900798006840F60041C4F20E
:1015F0000001884222D1FFE7FFE70020019043F677
:101600003000C4F20200016841F08001016000680E
:1016100000F0800001900198FFE74FF4A050029085
:1016200002200390002104910591069041F60040AC
:10163000C4F2020002A9FEF73FFEFFE708B080BD3A
:1016400080B586B004900391029200208DF80700C7
:10165000FFE7049890F83C00012804D1FFE702203E
:101660008DF8170089E00499012081F83C00FFE71C
:10167000FFE7029800900C2800F270800099DFE8E4
:1016800001F0076D6D6D206D6D6D3A6D6D6D5300E0
:1016900004980068039900F0B5FC04980168886913
:1016A00040F00800886104980168886920F004000F
:1016B0008861039802690498016888691043886109
:1016C00050E004980068039900F012FD0498016846
:1016D000886940F40060886104980168886920F492
:1016E000806088610398026904980168886940EA0B
:1016F0000220886136E004980068039900F072FDCA
:1017000004980168C86940F00800C861049801683D
:10171000C86920F00400C861039802690498016850
:10172000C8691043C8611DE004980068039900F07F
:10173000D3FD04980168C86940F40060C86104984A
:101740000168C86920F48060C86103980269049840
:101750000168C86940EA0220C86103E001208DF8F1
:101760000700FFE7FFE70499002081F83C00FFE74E
:101770009DF807008DF81700FFE79DF8170006B0E9
:1017800080BD000080B582B00090009820B9FFE7CE
:1017900001208DF807003FE0009890F83D0040B927
:1017A000FFE70099002081F83C00009800F038F82D
:1017B000FFE70099022081F83D00009951F8040BE1
:1017C00000F002FB0099012081F84600FFE7009934
:1017D000012081F83E00009981F83F00009981F8CE
:1017E0004000009981F84100FFE7FFE700990120E0
:1017F00081F84200009981F84300009981F8440083
:10180000009981F84500FFE70099012081F83D002B
:1018100000208DF80700FFE79DF8070002B080BDAB
:1018200081B0009001B0704780B58CB00A900991EA
:10183000099828B9FFE70A9890F83E0007901CE045
:101840000998042805D1FFE70A9890F83F00069010
:1018500010E00998082805D1FFE70A9890F84000A1
:10186000059004E00A9890F841000590FFE705987C
:101870000690FFE706980790FFE70798012804D035
:10188000FFE701208DF82F00AFE0099828B9FFE7A6
:101890000A99022081F83E001EE00998042806D12A
:1018A000FFE70A99022081F83F00049012E00998AE
:1018B000082806D1FFE70A99022081F8400003902A
:1018C00005E00A99022081F841000390FFE70398A0
:1018D0000490FFE70498FFE70A980068099901223D
:1018E000019200F043FB01980A9909680022C4F2B2
:1018F0000102914202900CD0FFE70A9800684FF66F
:101900000041CBF6FE710844B0FA80F04009029025
:10191000FFE70298C00738B1FFE70A980168486CF2
:1019200040F400404864FFE70A9800680021C4F2D0
:10193000010188423CD0FFE70A980068B0F1804F6F
:1019400036D0FFE70A98006840F20041C4F2000177
:1019500088422DD0FFE70A98006840F60001C4F2E3
:101960000001884224D0FFE70A98006840F6004151
:10197000C4F2000188421BD0FFE70A98006840F2D9
:101980000041C4F20101884212D0FFE70A980068C2
:1019900044F20001C4F20101884209D0FFE70A982D
:1019A000006841F60001C4F20001884212D1FFE74D
:1019B0000A980068806800F00700089008980628D8
:1019C00007D0FFE70A980168086840F00100086046
:1019D000FFE706E00A980168086840F00100086027
:1019E000FFE700208DF82F00FFE79DF82F000CB0D7
:1019F00080BD0000FFE7FEE780B58CB000200B90B3
:101A00000A90099008900790FFE70020069043F69F
:101A10003000C4F20200016841F001010160006879
:101A200000F0010006900698FFE7FFE70020059010
:101A300043F63000C4F20200016841F08001016009
:101A4000006800F0800005900598FFE741F600402F
:101A5000C4F2020001904FF4006100910022039251
:101A6000FEF706FE009A019803990792012202925E
:101A7000089209910A9107A90491FEF71DFC029AA8
:101A80000398049907920890022009900020C4F25C
:101A90000200FEF711FC0CB080BD000080B588B0DC
:101AA0000021009107910691059104910391029103
:101AB00040F21000C2F2000001900022C4F20102C4
:101AC0000260B3224260816040F2E732C26001618D
:101AD00041618161FFF734FC18B1FFE7FEF7E8FBD5
:101AE000FFE74FF48050049040F21000C2F2000073
:101AF00004A9FFF7ADFC18B1FFE7FEF7D9FBFFE73C
:101B000000200290039040F21000C2F2000002A9EF
:101B1000FFF784FB18B1FFE7FEF7CAFBFFE708B049
:101B200080BD000080B58EB0002100910D910C9118
:101B30000B910A91099108910791069105910491E1
:101B400003910291019140F25800C2F2000040F668
:101B50000042C4F200020260B3224260816040F29F
:101B6000E732C26001618161FFF7EAFB18B1FFE76C
:101B7000FEF79EFBFFE74FF480500A9040F25800BA
:101B8000C2F200000AA9FFF763FC18B1FFE7FEF7F5
:101B90008FFBFFE740F25800C2F20000FFF7F2FDB2
:101BA00018B1FFE7FEF784FBFFE7002008900990DB
:101BB00040F25800C2F2000008A9FFF72FFB18B14D
:101BC000FFE7FEF775FBFFE760200190002202921D
:101BD0000392059240F25800C2F2000001A9FFF7FB
:101BE0002FFD18B1FFE7FEF763FBFFE770200190C0
:101BF00040F2F310029040F25800C2F2000001A936
:101C00000822FFF71DFD18B1FFE7FEF751FBFFE7C4
:101C100040F25800C2F20000FFF7DCFC0EB080BDBD
:101C2000FFE7FEE7FFE7FEE788B007900691059221
:101C3000079800F0070004900498C0F107000528F9
:101C400003D3FFE70420019004E00498C0F10700EB
:101C50000190FFE70198039004980430062803D808
:101C6000FFE70020009003E0049803380090FFE7AE
:101C70000098029006980399012202FA01F10139B5
:101C80000840029B984005999A40013A1140084348
:101C900008B07047704700007047000080B582B000
:101CA000009000980138B0F1807F03D3FFE7012056
:101CB000019019E0009801384EF21401CEF20001B3
:101CC00008604FF0FF300F2100F0B4FB4EF2180116
:101CD000CEF20001002008604EF21002CEF20002A7
:101CE000072111600190FFE7019802B080BD00005C
:101CF00080B5FEF7DBFC80BD80B594B008A830212C
:101D0000FEF796FA00200790069005900490039045
:101D1000FFE70020029043F64000C4F20200016891
:101D200041F080510160006800F0805002900298FC
:101D3000FFE7FFE70020019047F20000C4F2000037
:101D4000016841F480410160006800F48040019026
:101D50000198FFE7012008904FF48030099002209D
:101D60000E904FF480010F9108211091A82111913C
:101D700012900420139008A8FEF7E8FE18B1FFE7C0
:101D8000FEF796FAFFE70F20039002200490002050
:101D900005904FF4A05006904FF48050079003A890
:101DA0000421FEF72DFD18B1FFE7FEF781FAFFE7EA
:101DB00014B080BD4EF68851CEF20001086840F4A0
:101DC000700008607047000083B002900191029893
:101DD0000068009002980021C4F20101884225D0D9
:101DE000FFE70298B0F1804F20D0FFE7029840F261
:101DF0000041C4F20001884218D0FFE7029840F683
:101E00000001C4F20001884210D0FFE7029840F6BA
:101E10000041C4F20001884208D0FFE7029840F276
:101E20000041C4F2010188420AD1FFE7009820F086
:101E30007000009001984168009808430090FFE707
:101E400002980021C4F20101884255D0FFE70298B0
:101E5000B0F1804F50D0FFE7029840F20041C4F249
:101E60000001884248D0FFE7029840F60001C4F222
:101E70000001884240D0FFE7029840F60041C4F2DA
:101E80000001884238D0FFE7029840F20041C4F2D6
:101E90000101884230D0FFE7029844F20001C4F209
:101EA0000101884228D0FFE7029844F20041C4F2C1
:101EB0000101884220D0FFE7029844F60001C4F2F5
:101EC0000101884218D0FFE7029841F60001C4F2F0
:101ED0000001884210D0FFE7029841F60041C4F2A9
:101EE0000001884208D0FFE7029842F20001C4F2E4
:101EF000000188420AD1FFE7009820F4407000906A
:101F00000198C168009808430090FFE7009820F00E
:101F100080000199496908430090019880680299FE
:101F2000C862019800680299886202980021C4F290
:101F30000101884208D0FFE7029840F20041C4F254
:101F40000101884205D1FFE7019800690299086301
:101F5000FFE70299086840F0040008600299012038
:101F6000486100980299086003B0704784B00390FC
:101F700002910192029800F01F0101208840009018
:101F8000009A0399086A904308620198029901F047
:101F90001F0100FA01F20399086A1043086204B0B5
:101FA0007047000085B00490039102920193049859
:101FB00080680090009820F47F4000900398029978
:101FC000019A41EA022101430098084300900098D9
:101FD0000499886005B0704783B00290019102981F
:101FE00080680090009820F070000090019800999F
:101FF000084340F00700009000980299886003B001
:102000007047000085B0049003910498006A019025
:102010000499086A20F00100086204984068009062
:10202000049880690290029820F070000290029853
:1020300020F0030002900398016802980843029080
:10204000019820F0020001900398816801980843EC
:10205000019004980021C4F20101884208D0FFE7F2
:10206000049840F20041C4F2010188420ED1FFE71A
:10207000019820F0080001900398C1680198084376
:102080000190019820F004000190FFE704980021DE
:10209000C4F20101884208D0FFE7049840F20041F1
:1020A000C4F20101884213D1FFE7009820F4807048
:1020B0000090009820F40070009003984169009807
:1020C0000843009003988169009808430090FFE757
:1020D00000980499486002980499886103984068C0
:1020E0000499486301980499086205B0704700009C
:1020F00085B0049003910498006A01900499086ADD
:1021000020F01000086204984068009004988069EC
:102110000290029820F4E0400290029820F440706F
:10212000029003980168029840EA01200290019809
:1021300020F02000019003988168019840EA011086
:10214000019004980021C4F20101884208D0FFE701
:10215000049840F20041C4F2010188420FD1FFE728
:10216000019820F0800001900398C168019840EA2E
:1021700001100190019820F040000190FFE70498C1
:102180000021C4F20101884208D0FFE7049840F220
:102190000041C4F20101884215D1FFE7009820F404
:1021A00080600090009820F40060009003984169DE
:1021B000009840EA8100009003988169009840EA05
:1021C00081000090FFE70098049948600298049904
:1021D00088610398406804998863019804990862AB
:1021E00005B0704785B0049003910498006A01908F
:1021F0000499086A20F4807008620498406800908E
:102200000498C0690290029820F070000290029831
:1022100020F003000290039801680298084302909E
:10222000019820F40070019003988168019840EAB9
:102230000120019004980021C4F20101884208D0D5
:10224000FFE7049840F20041C4F2010188420FD137
:10225000FFE7019820F4006001900398C16801989D
:1022600040EA01200190019820F480600190FFE78E
:1022700004980021C4F20101884208D0FFE70498C5
:1022800040F20041C4F20101884215D1FFE70098F5
:1022900020F480500090009820F4005000900398A3
:1022A0004169009840EA0110009003988169009804
:1022B00040EA01100090FFE70098049948600298F6
:1022C0000499C861039840680499C8630198049907
:1022D000086205B07047000085B00490039104982F
:1022E000006A01900499086A20F4805008620498FA
:1022F000406800900498C0690290029820F4E04081
:102300000290029820F440700290039801680298AD
:1023100040EA01200290019820F4005001900398B7
:102320008168019840EA0130019004980021C4F2CC
:102330000101884208D0FFE7049840F20041C4F24E
:10234000010188420BD1FFE7009820F48040009003
:1023500003984169009840EA81100090FFE70098D7
:102360000499486002980499C861039840680499E8
:10237000086401980499086205B0704785B004901C
:10238000039102920498006A00900499086A20F070
:1023900001000862049880690190019820F0F00023
:1023A00001900299019840EA01100190009820F0F4
:1023B0000A0000900399009808430090019804993E
:1023C000886100980499086205B0704785B0049050
:1023D000039102920498006A00900499086A20F020
:1023E00010000862049880690190019820F4704000
:1023F00001900299019840EA01300190009820F084
:10240000A00000900399009840EA01100090019804
:102410000499886100980499086205B0704700002B
:10242000FFE7FEE74EF60C50CEF200000068C0F366
:102430000220704782B08DF8070000919DF90700D7
:1024400000280AD4FFE7009800019DF907104EF21A
:102450000042CEF2000288540BE0009800019DF883
:10246000071001F00F014EF61452CEF2000288540C
:10247000FFE702B07047000083B00290029800F0BE
:10248000070000904EF60C51CEF200010868019052
:1024900001984FF6FF02104001900198009A40EA1F
:1024A00002200022C0F2FA52104301900198086005
:1024B00003B0704780B586B000200590FEF704F9A0
:1024C000FFF71AFCFFF798FAFFF7E8FAFFF72AFB85
:1024D00040F25800C2F200000821FFF7A5F9FFE71B
:1024E00040F25800C2F2000001900068406A049077
:1024F0009DED040AB8EE400A8DED020AFEF7D0F811
:10250000800000EE100AB8EE400A9FED0C1A80EE33
:10251000010A00F029F80199B0EE401A9DED020A77
:1025200020EE010ABFEE001A30EE010ABCEEC00A2E
:102530008DED030A03980968C863D1E700007A4467
:102540004100080218BF04200A0E18BF40F0010025
:102550004FF07F4232EA010108BF40F0020001283B
:1025600008BF05207047000000B510EE101A2DEDD1
:10257000028B81B0524A6846B2EB410F2ED94FF020
:10258000E640B0EB410F94BF00204FF0FF300090C9
:102590000098B0EE408A00286ADB10F0010F4BD0A3
:1025A00068EE080A9FED471A9FED470A00EE810A80
:1025B0009FED461A10F0020F00EE801AB7EE000AE7
:1025C00000EE810A02BF01B0BDEC028B00BD00BF6E
:1025D00001B0B1EE400ABDEC028B00BD3C4B21F0D6
:1025E0000042934241D911F0004FDFED3A0A20EE4C
:1025F000201ADFED390A19BF31EE601A71EE200A98
:1026000031EE201A71EE600ABDEEE01A11EE100AEA
:102610009FED321A00F0030000EEC10A9FED301A60
:10262000009000EEC10A9FED2F1A00EEC10A9FED47
:102630002E1A00EEC10AABE728EE080A9FED2B1A0E
:10264000DFED2B0A10F0020F40EE010A9FED291A70
:1026500000EE201A61EE000AB0EE480A08EE200AE9
:10266000B6D101B0BDEC028B00BD00F059F88FE788
:1026700018EE100A4000B0F17F4F0DD218EE100A8C
:10268000FFF75EFF042808BF00F042F8B0EE480AEA
:1026900001B0BDEC028B00BD09D1012000F0FAF8B9
:1026A00001B0BDEC028B5DF804EB00F029B801B07D
:1026B000B0EE480ABDEC028B5DF804EB00F01CB8EC
:1026C000B61F927EB93AB2BACA9F2A3DDDFFFFBE5D
:1026D000490E494683F9223F0000004B0000C93FE4
:1026E00000A0FD390020A2331A61342C336D4CB99F
:1026F000DA82083CA0AA2ABE30EE000A7047000029
:10270000DFED020A80EEA00A704700000000000022
:102710009FED020A20EE000A704700000000001042
:102720002DE9F0014FF07F42B2EB410F9FBF4FF018
:10273000FF310160BDE8F00170474FF0004242EA0E
:102740000123C1F3C752783A551112F01F0C434CC4
:10275000CCF120067C44C1F3C752A2F178024FEAC3
:10276000621204EB820254F8254008BFD2E90156F8
:1027700012D0556804FA0CF425FA06F73C43976822
:1027800005FA0CF527FA06F8D26807FA0CFCF240B5
:1027900045EA08054CEA0206A4FB034CA5FB0352DC
:1027A000A6FB03631D449D4234BF01260026131976
:1027B000334416B1934202D903E0934201D201227D
:1027C00000E00022624402F1200C9206DC0C42EA96
:1027D000443200EE102A5B03DFED210AF8EEC01A46
:1027E00000EE103A4FEA9C1C11F0004FB8EE400A80
:1027F000C0F800C020EE201A00EE105ADFED190AD2
:10280000B8EE400A20EE200A71EE810A70EE800ACE
:1028100010EE902A02F500626FF30B0200EE902A90
:1028200070EEE11A31EEC11ADFED101A30EE411AE6
:102830009FED0D0A20EE800A01EE210A9FED0C1A91
:1028400000EE810A04BFBDE8F0017047CCF1805171
:102850000160BDE8F001B1EE400A70474801000098
:10286000000000360000802C22AAFD29DB0FC92FB2
:102870000000C92F02E008C8121F08C1002AFAD1BF
:1028800070477047002001E001C1121F002AFBD1F0
:1028900070470000014908607047000000000020F8
:1028A000000000006E83F9A22915444ED15727FC81
:1028B000C0DD34F5999562DB4190433CAB6351FE3A
:1028C00000000000000000000102030406070809E0
:1028D000F028000800000020100000007428000804
:1028E0000029000810000020980400008428000837
:1028F000000000000024F4000100000010000000AF
:040000050800018965
:00000001FF
