:020000040800F2
:10000000A807002029020008FD210008A11E000801
:10001000F9210008210400086D2C000800000000F0
:100020000000000000000000000000007122000835
:1000300025040008000000006D220008C922000805
:10004000430200084302000843020008430200087C
:10005000430200084302000843020008430200086C
:10006000430200084302000843020008430200085C
:10007000430200084302000843020008430200084C
:10008000430200084302000843020008430200083C
:10009000430200084302000843020008430200082C
:1000A000430200084302000843020008430200081C
:1000B000430200084302000843020008430200080C
:1000C00043020008430200084302000843020008FC
:1000D00043020008430200084302000843020008EC
:1000E00043020008430200084302000843020008DC
:1000F00043020008430200084302000843020008CC
:1001000043020008430200084302000843020008BB
:1001100043020008430200084302000843020008AB
:10012000430200084302000843020008430200089B
:10013000430200084302000843020008430200088B
:10014000430200084302000843020008430200087B
:10015000430200084302000843020008430200086B
:10016000430200084302000843020008430200085B
:100170004302000843020008430200080000000098
:10018000430200084302000800F002F800F03CF8C7
:100190000AA090E8000C82448344AAF10107DA45E2
:1001A00001D100F031F8AFF2090EBAE80F0013F0F8
:1001B000010F18BFFB1A43F001031847FC2B000086
:1001C0001C2C0000103A24BF78C878C1FAD8520716
:1001D00024BF30C830C144BF04680C6070470000C1
:1001E0000023002400250026103A28BF78C1FBD840
:1001F000520728BF30C148BF0B6070471FB502F0DF
:10020000C1FD1FBD10B510BD00F0D0F81146FFF7BD
:10021000F5FF02F075FD00F0EEF803B4FFF7F2FF12
:1002200003BC00F0F5F80000094880470948004782
:10023000FEE7FEE7FEE7FEE7FEE7FEE7FEE7FEE796
:10024000FEE7FEE704480549054A064B70470000F3
:100250008D23000889010008A8010020A8070020BC
:10026000A8030020A803002053EA020C00F06980D4
:100270002DE9F04B4FF00006002B1FBFB3FA83F5BA
:1002800003FA05F424FA05F65E4012BF1643B2FAEB
:1002900082F502FA05F4C5F120051EBF22FA05FC1D
:1002A00044EA0C04203556EA044C4FEA144418BFC3
:1002B000641C4FF000084FF00009904271EB030CF2
:1002C00039D3002919BFB1FA81F701FA07F6B0FA5C
:1002D00080F700FA07F6C7F120071EBF20FA07FCD7
:1002E00046EA0C062037B6FBF4FCA7EB0507103FE7
:1002F00007F01F0BCBF120062CFA06F60CFA0BFBCD
:1003000044BFB3460026202FA4BF5E464FF0000B2B
:100310005BEA060C08BF4FF0010B19EB0B0948EB29
:100320000608ABFB027C06FB02CC0BFB03CCC01B1C
:1003300071EB0C01C1E70B46024641464846BDE859
:10034000F08B13B5084318BF4FF0FF300146AFF3F1
:100350000080BDE81C4070474FF0000200B5134616
:1003600094469646203922BFA0E80C50A0E80C50D5
:10037000B1F12001BFF4F7AF090728BFA0E80C5086
:1003800048BF0CC05DF804EB890028BF40F8042B7F
:1003900008BF704748BF20F8022B11F0804F18BFEC
:1003A00000F8012B7047704770477047754600F0A2
:1003B0002BF8AE4605006946534620F007008546F7
:1003C00018B020B5FFF73EFFBDE820404FF0000613
:1003D0004FF000074FF000084FF0000BAC46ACE8C0
:1003E000C009ACE8C009ACE8C009ACE8C00921F01C
:1003F00007018D46704710B50446AFF300802046D4
:10040000BDE81040FFF709BF004870471800002002
:1004100001491820ABBEFEE726000200704700002D
:10042000FFE7FEE77047000072B6FFE7FEE7000057
:100430008EB00D900C9100200A90099008900B90BE
:10044000FFE70B980F2800F2CC81FFE70B99012002
:1004500088400A900C9800680A9908400990099809
:100460000A99884240F0B881FFE70C98406800F094
:100470000300012807D0FFE70C98406800F0030054
:1004800002282FD1FFE70D98806808900B98410053
:10049000032000FA01F10898884308900C98C0687E
:1004A0000B99490000FA01F1089808430890089850
:1004B0000D9988600D98406808900B99012000FA0A
:1004C00001F10898884308900C984068C0F3001028
:1004D0000B9900FA01F108980843089008980D99C3
:1004E0004860FFE70C98406800F00300032818D02C
:1004F000FFE70D98C06808900B984100032000FAB0
:1005000001F10898884308900C9880680B9949007D
:1005100000FA01F108980843089008980D99C860FE
:10052000FFE70C98406800F00300022826D1FFE79F
:100530000D980B996FF0030202EA51010844006A1A
:1005400008900B9800F0070081000F2000FA01F1DD
:100550000898884308900C9800690B9901F00701EE
:10056000890000FA01F108980843089008980D994D
:100570000B9B02EA530211440862FFE70D980068E2
:1005800008900B984100032000FA01F10898884375
:1005900008900C98406800F003000B99490000FA9D
:1005A00001F108980843089008980D9908600C9884
:1005B00080798007002800F00E81FFE7FFE7002028
:1005C000079043F64400C4F20200016841F4804100
:1005D0000160006800F4804007900798FFE70B98DF
:1005E00020F0030043F60801C4F2010140580890CE
:1005F0000B9800F0030081000F2000FA01F1089829
:10060000884308900D980021C4F20201884203D16A
:10061000FFE7002006905EE00D9840F20041C4F232
:100620000201884203D1FFE70120059050E00D98B8
:1006300040F60001C4F20201884203D1FFE7022024
:10064000049042E00D9840F60041C4F20201884255
:1006500003D1FFE70320039034E00D9841F200013D
:10066000C4F20201884203D1FFE70420029026E091
:100670000D9841F20041C4F20201884203D1FFE724
:100680000520019018E00D9841F60001C4F2020126
:10069000884203D1FFE7062000900AE00D9941F659
:1006A0000042C4F202020820914208BF07200090D5
:1006B000FFE700980190FFE701980290FFE702989A
:1006C0000390FFE703980490FFE704980590FFE785
:1006D00005980690FFE70698C0B20B9901F0030158
:1006E000890000FA01F108980843089008980B99CE
:1006F00021F0030143F60802C4F20102885043F6D8
:100700000840C4F2010000680890099908988843DD
:1007100008900C988079C006002805D5FFE7099954
:10072000089808430890FFE7089843F60841C4F288
:100730000101086043F60C40C4F201000068089013
:1007400009990898884308900C98807980060028B9
:1007500005D5FFE70999089808430890FFE708982E
:1007600043F60C41C4F20101086043F60440C4F2B0
:1007700001000068089009990898884308900C982F
:1007800080798007002805D5FFE709990898084374
:100790000890FFE7089843F60441C4F2010108609D
:1007A00043F60040C4F201000068089009990898D7
:1007B000884308900C988079C00728B1FFE7099911
:1007C000089808430890FFE7089843F60041C4F2F0
:1007D00001010860FFE7FFE7FFE70B9801300B908E
:1007E0002FE60EB07047000083B00290ADF80610FF
:1007F000029840690090009ABDF8060002EA0001E4
:10080000904340EA01400299886103B070470000BC
:1008100082B00190ADF802108DF801209DF8010022
:1008200028B1FFE7BDF802000199886105E0BDF835
:100830000200000401998861FFE702B070470000E0
:1008400040F2A410C2F200000068704740F20F00AE
:10085000C2F20000027840F2A411C2F2000108685E
:10086000104408607047000080B543F60041C4F2B0
:100870000201086840F400700860086840F4806075
:100880000860086840F480700860032000F080F879
:100890000F2000F005F800F03BF8002080BD0000BC
:1008A00080B582B0009040F20000C2F20000006803
:1008B00040F20F01C2F200010A784FF47A71B1FBE5
:1008C000F2F1B0FBF1F000F09BFD20B1FFE7012059
:1008D0008DF8070018E000980F280DD8FFE7009961
:1008E0004FF0FF30002200F039F8009840F210017C
:1008F000C2F20001086003E001208DF8070003E068
:1009000000208DF80700FFE79DF8070002B080BDCA
:1009100082B0FFE70020019043F64400C4F20200D9
:10092000016841F480410160006800F4804001905A
:100930000198FFE7FFE70020009043F64000C4F273
:100940000200016841F080510160006800F08050B1
:1009500000900098FFE702B07047000080B586B0B5
:100960008DF81700049103920020029002F080F9A4
:1009700002909DF91700019002980499039A01F0E2
:100980003FFC0146019802F07BF906B080BD0000F3
:1009900080B582B00190019802F094F902B080BD58
:1009A00080B584B002900191029820B9FFE7012040
:1009B0008DF80F0021E1019843F60041C4F20201D5
:1009C000096801F00701884212D9FFE7019943F64F
:1009D0000040C4F202000170006800F007000199B5
:1009E000884204D0FFE701208DF80F0005E1FFE702
:1009F00002980078800700282AD5FFE7029800783F
:100A00004007002809D5FFE743F60801C4F20201B8
:100A1000086840F4E0500860FFE70298007800079B
:100A2000002809D5FFE743F60801C4F2020108686F
:100A300040F460400860FFE743F60801C4F2020199
:100A4000086820F0F000029A926810430860FFE7FF
:100A500002980078C00700286ED0FFE7029840682F
:100A6000012811D1FFE743F60000C4F2020000683C
:100A700000F400310020B0EB514F04D1FFE701201A
:100A80008DF80F00B9E02CE002984068022805D0EC
:100A9000FFE702984068032811D1FFE743F6000002
:100AA000C4F20200006800F000710020B0EB516F4A
:100AB00004D1FFE701208DF80F009EE010E043F61F
:100AC0000000C4F20200006800F002010020B0EB58
:100AD000510F04D1FFE701208DF80F008DE0FFE7F3
:100AE000FFE743F60801C4F20201086820F00300A2
:100AF000029A526810430860FFF7A2FE0090FFE7D9
:100B000043F60800C4F20200006800F00C000299ED
:100B10004968B0EB810F0ED0FFE7FFF791FE009917
:100B2000401A41F28931884204D3FFE703208DF84F
:100B30000F0062E0E4E7FFE7019843F60041C4F2EA
:100B40000201096801F00701884212D2FFE701990A
:100B500043F60040C4F202000170006800F0070094
:100B60000199884204D0FFE701208DF80F0044E08E
:100B7000FFE702980078400700280CD5FFE743F60E
:100B80000801C4F20201086820F4E050029AD26819
:100B900010430860FFE702980078000700280DD591
:100BA000FFE743F60801C4F20201086820F4604040
:100BB000029A126940EAC2000860FFE700F04CF8B0
:100BC00043F60801C4F202010968C9B20A0942F6F3
:100BD0009E51C0F60001895CC84040F20001C2F29B
:100BE0000001086040F21000C2F200000068FFF748
:100BF00057FE00208DF80F00FFE79DF80F0004B0AE
:100C000080BD000040F20000C2F2000000687047A2
:100C100080B5FFF7F7FF43F60801C4F20201096847
:100C2000C1F3822242F6AE51C0F60001895CC84091
:100C300080BD000080B5FFF7E5FF43F60801C4F270
:100C40000201096889B24A0B42F6AE51C0F60001B2
:100C5000895CC84080BD000080B586B0002005904A
:100C600004900390029043F60800C4F2020000686A
:100C700000F00C000146019140B1FFE70198042803
:100C80000AD0FFE7019808280CD04FE042F200405C
:100C9000C0F2F40002904FE041F60030C0F2B7001D
:100CA000029049E043F60400C4F20200016801F03A
:100CB0003F01059100684002002813D5FFE743F685
:100CC0000400C4F202000068C0F3881041F600314D
:100CD000C0F2B701A0FB0101059A0023FFF7C4FA97
:100CE000049012E043F60400C4F202000068C0F36E
:100CF000881042F20041C0F2F401A0FB0101059A04
:100D00000023FFF7B1FA0490FFE743F60400C4F2B2
:100D10000200006800F44031022000EBD130039063
:100D200004980399B0FBF1F0029005E042F2004014
:100D3000C0F2F4000290FFE7029806B080BD000008
:100D400080B586B00490049820B9FFE701208DF8A3
:100D5000170050E304980078C007002800F0A58031
:100D6000FFE743F60800C4F20200006800F00C0040
:100D7000042813D0FFE743F60800C4F2020000681D
:100D800000F00C0008281ED1FFE743F60400C4F26F
:100D9000020000684002002815D5FFE743F6000076
:100DA000C4F20200006800F400310020B0EB514FA3
:100DB00008D0FFE70498406820B9FFE701208DF8CC
:100DC000170018E370E0FFE704984068B0F5803F33
:100DD00009D1FFE743F60001C4F20201086840F4BC
:100DE0008030086020E004984068B0F5A02F0DD155
:100DF000FFE743F60001C4F20201086840F48020D6
:100E00000860086840F4803008600CE043F6000198
:100E1000C4F20201086820F480300860086820F4F9
:100E200080200860FFE7FFE7FFE704984068E8B12B
:100E3000FFE7FFF705FD0390FFE743F60000C4F26C
:100E40000200006800F400310020B0EB514F0CD1DB
:100E5000FFE7FFF7F5FC0399401A652804D3FFE785
:100E600003208DF81700C6E2E7E71CE0FFF7E8FC77
:100E70000390FFE743F60000C4F20200006800F4AC
:100E800000310020B0EB514F0CD0FFE7FFF7D8FC4A
:100E90000399401A652804D3FFE703208DF8170053
:100EA000A9E2E7E7FFE7FFE7FFE70498007880079C
:100EB000002840F19680FFE743F60800C4F20200E4
:100EC000006810F00C0F13D0FFE743F60800C4F2DF
:100ED0000200006800F00C0008282CD1FFE743F660
:100EE0000400C4F2020000684002002823D4FFE797
:100EF00043F60000C4F20200006800F00201002086
:100F0000B0EB510F09D0FFE70498C068012804D066
:100F1000FFE701208DF817006DE243F60001C4F2EF
:100F20000201086820F0F800049A126940EAC20041
:100F30000860FFE754E00498C06870B3FFE7002141
:100F4000C4F2472101200860FFF77AFC0390FFE715
:100F500043F60000C4F20200006800F00201002025
:100F6000B0EB510F0CD1FFE7FFF76AFC0399401A71
:100F7000032804D3FFE703208DF817003BE2E7E7DF
:100F800043F60001C4F20201086820F0F800049A58
:100F9000126940EAC200086021E00021C4F2472142
:100FA00000200860FFF74CFC0390FFE743F60000C9
:100FB000C4F20200006800F002010020B0EB510F03
:100FC0000CD0FFE7FFF73CFC0399401A032804D339
:100FD000FFE703208DF817000DE2E7E7FFE7FFE7E3
:100FE000FFE704980078000700284BD5FFE7049836
:100FF000406918B3FFE740F68061C4F24721012041
:101000000860FFF71DFC0390FFE743F67400C4F28D
:101010000200006800F002010020B0EB510F0CD17B
:10102000FFE7FFF70DFC0399401A032804D3FFE7FD
:1010300003208DF81700DEE1E7E722E040F680614B
:10104000C4F2472100200860FFF7FAFB0390FFE796
:1010500043F67400C4F20200006800F002010020B0
:10106000B0EB510F0CD0FFE7FFF7EAFB0399401AF2
:10107000032804D3FFE703208DF81700BBE1E7E75F
:10108000FFE7FFE7049800784007002840F1CE8092
:10109000FFE700208DF8070043F64000C4F202008D
:1010A0000068C000002815D4FFE7FFE7002000908B
:1010B00043F64000C4F20200016841F08051016033
:1010C000006800F0805000900098FFE701208DF844
:1010D0000700FFE747F20000C4F200000068C00507
:1010E000002822D4FFE747F20001C4F2000108689B
:1010F00040F480700860FFF7A3FB0390FFE747F21E
:101100000000C4F200000068C00500280CD4FFE70E
:10111000FFF796FB0399401A032804D3FFE7032047
:101120008DF8170067E1EAE7FFE7FFE704988068BA
:10113000012809D1FFE743F67001C4F202010868F3
:1011400040F0010008601FE00498806805280DD178
:10115000FFE743F67001C4F20201086840F00400A2
:101160000860086840F0010008600CE043F6700178
:10117000C4F20201086820F001000860086820F04D
:1011800004000860FFE7FFE7FFE704988068F8B114
:10119000FFE7FFF755FB0390FFE743F67000C4F24B
:1011A0000200006800F002010020B0EB510F0ED1E8
:1011B000FFE7FFF745FB0399401A41F28931884266
:1011C00004D3FFE703208DF8170014E1E5E71EE0E4
:1011D000FFF736FB0390FFE743F67000C4F202000E
:1011E000006800F002010020B0EB510F0ED0FFE7C5
:1011F000FFF726FB0399401A41F28931884204D354
:10120000FFE703208DF81700F5E0E5E7FFE79DF81D
:101210000700012809D1FFE743F64001C4F20201AB
:10122000086820F080500860FFE7FFE704988069B5
:10123000002800F0DC80FFE743F60800C4F202005B
:10124000006800F00C00082800F08580FFE7049893
:10125000806902285CD1FFE76021C4F247210020A9
:101260000860FFF7EDFA0390FFE743F60000C4F2D1
:101270000200006800F000710020B0EB516F0CD04C
:10128000FFE7FFF7DDFA0399401A032804D3FFE7CD
:1012900003208DF81700AEE0E7E70499C869D1F89C
:1012A00020C04B6A8A6A40EA0C0040EA8310D203ED
:1012B0004FF6FF739A43A2F580321043C96A40EAA1
:1012C000016043F60401C4F2020108606021C4F227
:1012D000472101200860FFF7B3FA0390FFE743F6C8
:1012E0000000C4F20200006800F000710020B0EBC2
:1012F000516F0CD1FFE7FFF7A3FA0399401A0328B7
:1013000004D3FFE703208DF8170074E0E7E721E03E
:101310006021C4F2472100200860FFF791FA039092
:10132000FFE743F60000C4F20200006800F000711D
:101330000020B0EB516F0CD0FFE7FFF781FA039963
:10134000401A032804D3FFE703208DF8170052E06A
:10135000E7E7FFE74AE004988069012804D1FFE746
:1013600001208DF8170046E043F60400C4F20200A5
:101370000068029004988069012831D0FFE7029844
:1013800000F480000499C969884229D1FFE70298D6
:1013900000F03F000499096A884221D1FFE70298D2
:1013A00047F6C07108400499496AB0EB811F17D114
:1013B000FFE7029800F440300499896AC9034FF6A8
:1013C000FF729143A1F58031884209D1FFE702986D
:1013D00000F070600499C96AB0EB016F04D0FFE7B8
:1013E00001208DF8170006E0FFE7FFE7FFE7002088
:1013F0008DF81700FFE79DF8170006B080BD0000CC
:1014000080B582B00190019800F034FF02B080BD39
:1014100085B003900291FFE7039890F83C00012803
:1014200004D1FFE702208DF813007EE0039901202C
:1014300081F83C00FFE7FFE70399022081F83D00B7
:1014400003980068406801900398006880680090E5
:10145000019820F0700001900298016801980843FB
:101460000190019803990968486003980068002179
:10147000C4F2010188423CD0FFE703980068B0F154
:10148000804F36D0FFE70398006840F20041C4F275
:10149000000188422DD0FFE70398006840F6000164
:1014A000C4F20001884224D0FFE70398006840F6A8
:1014B0000041C4F2000188421BD0FFE70398006896
:1014C00040F20041C4F20101884212D0FFE70398C4
:1014D000006844F20001C4F20101884209D0FFE72C
:1014E0000398006841F60001C4F2000188420ED161
:1014F000FFE7009820F08000009002984168009873
:10150000084300900098039909688860FFE70399F1
:10151000012081F83D00FFE70399002081F83C009D
:10152000FFE700208DF81300FFE79DF8130005B0DA
:101530007047000080B582B00090009820B9FFE7A6
:1015400001208DF807003FE0009890F83D0040B979
:10155000FFE70099002081F83C00009800F038F87F
:10156000FFE70099022081F83D00009951F8040B33
:1015700000F016FF0099012081F84600FFE700996E
:10158000012081F83E00009981F83F00009981F820
:101590004000009981F84100FFE7FFE70099012032
:1015A00081F84200009981F84300009981F84400D5
:1015B000009981F84500FFE70099012081F83D007E
:1015C00000208DF80700FFE79DF8070002B080BDFE
:1015D00084B00390039800680021C4F2010188429E
:1015E00012D1FFE7FFE70020029043F64400C4F267
:1015F0000200016841F001010160006800F0010093
:1016000002900298FFE737E00398006840F6000177
:10161000C4F20001884212D1FFE7FFE700200190E9
:1016200043F64000C4F20200016841F00401016089
:10163000006800F0040001900198FFE71BE00398A8
:10164000006840F60041C4F20001884212D1FFE771
:10165000FFE70020009043F64000C4F2020001685A
:1016600041F008010160006800F008000090009857
:10167000FFE7FFE7FFE7FFE704B0704780B586B0FC
:101680000490039100208DF80B00FFE7049890F878
:101690003C00012804D1FFE702208DF81700ABE0E1
:1016A0000499012081F83C00FFE7FFE7049902203C
:1016B00081F83D000498006880680190019820F04E
:1016C00077000190019820F47F40019001980499DF
:1016D00009688860039800680090002872D0FFE7CE
:1016E000009810286ED0FFE7009820286AD0FFE706
:1016F0000098302866D0FFE70098402855D0FFE7D3
:101700000098502837D0FFE70098602840D0FFE7C6
:10171000009870280BD0FFE70098B0F5805F05D0E7
:10172000FFE70098B0F5005F16D052E055E004984E
:101730000068039B5A689968DB6800F003FF04980F
:10174000006880680190019840F07700019001984E
:1017500004990968886040E004980068039B5A680F
:101760009968DB6800F0EEFE04980168886840F430
:101770008040886031E004980068039A5168D2681C
:1017800001F0CCF804980068502100F0F5FE24E048
:1017900004980068039A5168D26801F0E7F8049849
:1017A0000068602100F0E8FE17E004980068039AE2
:1017B0005168D26801F0B2F804980068402100F046
:1017C000DBFE0AE0049800680399096800F0D4FE83
:1017D00003E001208DF80B00FFE70499012081F858
:1017E0003D00FFE70499002081F83C00FFE79DF8E9
:1017F0000B008DF81700FFE79DF8170006B080BDBD
:1018000080B588B007900020069005900490039062
:1018100002900798006840F60001C4F20001884277
:1018200022D1FFE7FFE70020019043F63000C4F229
:101830000200016841F002010160006800F002004E
:1018400001900198FFE74FF480700290022003900E
:10185000002104910591069040F20040C4F202007C
:1018600002A9FEF7E5FD2BE00798006840F600416D
:10187000C4F20001884222D1FFE7FFE70020009078
:1018800043F63000C4F20200016841F080010160BB
:10189000006800F0800000900098FFE74FF4A0502F
:1018A000029002200390002104910591069041F6D8
:1018B0000040C4F2020002A9FEF7BAFDFFE7FFE70D
:1018C00008B080BD80B586B00490039102920020DC
:1018D0008DF80700FFE7049890F83C00012804D138
:1018E000FFE702208DF8170089E00499012081F8B4
:1018F0003C00FFE7FFE7029800900C2800F27080A0
:101900000099DFE801F0076D6D6D206D6D6D3A6D2A
:101910006D6D530004980068039900F043FE04982D
:101920000168886940F00800886104980168886946
:1019300020F00400886103980269049801688869AE
:101940001043886150E004980068039900F0A0FEFD
:1019500004980168886940F400608861049801680F
:10196000886920F48060886103980269049801689E
:10197000886940EA0220886136E00498006803998B
:1019800000F000FF04980168C86940F00800C861D1
:1019900004980168C86920F00400C86103980269CE
:1019A00004980168C8691043C8611DE00498006884
:1019B000039900F061FF04980168C86940F4006071
:1019C000C86104980168C86920F48060C861039800
:1019D000026904980168C86940EA0220C86103E00E
:1019E00001208DF80700FFE7FFE70499002081F848
:1019F0003C00FFE79DF807008DF81700FFE79DF812
:101A0000170006B080BD000080B582B0009000983D
:101A100020B9FFE701208DF807003FE0009890F81B
:101A20003D0040B9FFE70099002081F83C00009894
:101A300000F038F8FFE70099022081F83D00009996
:101A400051F8040B00F0ACFC0099012081F846002D
:101A5000FFE70099012081F83E00009981F83F00DE
:101A6000009981F84000009981F84100FFE7FFE705
:101A70000099012081F84200009981F84300009903
:101A800081F84400009981F84500FFE700990120A2
:101A900081F83D0000208DF80700FFE79DF8070062
:101AA00002B080BD81B0009001B0704780B582B0B7
:101AB0000090009820B9FFE701208DF8070040E072
:101AC0000098806908B1FFE700E0FFE7009890F810
:101AD000410040B9FFE70099002081F840000098DC
:101AE00000F034F8FFE70099242081F841000098C5
:101AF0000168C86820F40050C860009800F0AAFF90
:101B000000980168086920F4904008610098016815
:101B1000486920F02A00486100980168C86840F4CC
:101B20000050C860009900204864009A202182F883
:101B30004110009A82F84210009948638DF807001E
:101B4000FFE79DF8070002B080BD000080B58EB0B1
:101B50000D9000200C900B900A90099008900D9821
:101B6000006841F20001C4F2010188425ED1FFE742
:101B7000FFE70020079043F64400C4F2020001682A
:101B800041F010010160006800F010000790079814
:101B9000FFE7FFE70020069043F63000C4F20200A2
:101BA000016841F002010160006800F00200069047
:101BB0000698FFE7FFE70020059043F63000C4F2E7
:101BC0000200016841F001010160006800F00100BD
:101BD00005900598FFE7802008900220009009906A
:101BE000002001900A90032002900B9007200390A0
:101BF0000C9040F20040C4F2020008A90491FEF7E4
:101C000017FCDDF800C0019B029A039804994FF479
:101C1000007ECDF820E0CDF824C00A930B920C9002
:101C20000020C4F20200FEF703FCFFE70EB080BD07
:101C300080B58AB008900791ADF81A20059300206E
:101C40000290089890F84200202840F08880FFE732
:101C5000079820B1FFE7BDF81A0020B9FFE701207F
:101C60008DF827007FE0089900204864089A222117
:101C700082F8421008990863FEF7E2FD0290BDF871
:101C80001A0008998885BDF81A000899C88508982F
:101C90008068B0F5805F09D1FFE70898006928B92E
:101CA000FFE7002004900798039004E00798049051
:101CB00000200390FFE7FFE70898C08D002846D07A
:101CC000FFE70898029B05996A46116020210022CF
:101CD00000F05EFF40B1FFE70899202081F8420044
:101CE00003208DF827003EE0049858B9FFE70898D4
:101CF000006840686FF35F20039908800398023002
:101D000003901FE008988068B0F5805F08D0FFE777
:101D10000898806850B9FFE70898006930B9FFE774
:101D20000898006840680499087007E008980068FF
:101D3000406800F07F0004990870FFE704980130C4
:101D40000490FFE70899C88D0138C885B4E7089961
:101D5000202081F8420000208DF8270003E00220B7
:101D60008DF82700FFE79DF827000AB080BD00002E
:101D700080B58AB008900791ADF81A20059300202D
:101D80000290089890F84100202840F08180FFE7F9
:101D9000079820B1FFE7BDF81A0020B9FFE701203E
:101DA0008DF8270078E008990020486408992120E0
:101DB00081F84100FEF744FD0290BDF81A00089931
:101DC0008884BDF81A000899C88408988068B0F51E
:101DD000805F09D1FFE70898006928B9FFE7002074
:101DE00004900798039004E0079804900020039063
:101DF000FFE7FFE70898C08C78B3FFE70898029BDD
:101E000005996A4611608021002200F0C1FE40B1B0
:101E1000FFE70899202081F8410003208DF8270072
:101E20003AE0049858B9FFE7039800886FF35F2001
:101E300008990968486003980230039008E0049804
:101E40000078089909684860049801300490FFE719
:101E50000899C88C0138C884CCE70898029B05997A
:101E60006A4611604021002200F092FE40B1FFE777
:101E70000899202081F8410003208DF827000BE00D
:101E80000899202081F8410000208DF8270003E008
:101E900002208DF82700FFE79DF827000AB080BDDB
:101EA000FFE7FEE780B58CB000200B900A90099008
:101EB00008900790FFE70020069043F63000C4F238
:101EC0000200016841F002010160006800F00200B8
:101ED00006900698FFE7FFE70020059043F63000E4
:101EE000C4F20200016841F001010160006800F0E5
:101EF000010005900598FFE7FFE70020049043F6F6
:101F00003000C4F20200016841F080010160006805
:101F100000F0800004900498FFE741F60040C4F20E
:101F2000020003904FF40061019100220292FEF73B
:101F30006FFC019A02990398079201220892099274
:101F40000A9107A9FEF774FA0CB080BD80B588B07D
:101F5000002100910791069105910491039102914E
:101F600040F27800C2F2000001900022C4F20102A7
:101F70000260B3224260816040F2E732C2600161D8
:101F800041618161FFF7D6FA18B1FFE7FEF74CFA1D
:101F9000FFE74FF48050049040F27800C2F2000056
:101FA00004A9FFF76BFB18B1FFE7FEF73DFAFFE767
:101FB00000200290039040F27800C2F2000002A9D3
:101FC000FFF726FA18B1FFE7FEF72EFAFFE708B091
:101FD00080BD000080B58EB0002100910D910C9164
:101FE0000B910A910991089107910691059104912D
:101FF00003910291019140F2C000C2F2000040F64C
:102000000002C4F20002026040F2E73242608160E6
:10201000B322C26001618161FFF78CFA18B1FFE75A
:10202000FEF702FAFFE74FF480500A9040F2C0003A
:10203000C2F200000AA9FFF721FB18B1FFE7FEF783
:10204000F3F9FFE740F2C000C2F20000FFF7DCFC4A
:1020500018B1FFE7FEF7E8F9FFE7002008900990C4
:1020600040F2C000C2F2000008A9FFF7D1F918B190
:10207000FFE7FEF7D9F9FFE76020019040F2F31087
:10208000029000200390059040F2C000C2F20000D0
:1020900001A90822FFF716FC18B1FFE7FEF7C4F903
:1020A000FFE740F2C000C2F20000FFF7A9FB0EB04C
:1020B00080BD000080B58EB0002100910D910C9183
:1020C0000B910A910991089107910691059104914C
:1020D00003910291019140F20810C2F2000040F613
:1020E0000042C4F200020260B3224260816040F20A
:1020F000E732C26001618161FFF71CFA18B1FFE7A6
:10210000FEF792F9FFE74FF480500A9040F2081072
:10211000C2F200000AA9FFF7B1FA18B1FFE7FEF713
:1021200083F9FFE740F20810C2F20000FFF76CFCF1
:1021300018B1FFE7FEF778F9FFE700200890099053
:1021400040F20810C2F2000008A9FFF761F918B1C7
:10215000FFE7FEF769F9FFE7602001900022029295
:102160000392059240F20810C2F2000001A9FFF7A5
:10217000A9FB18B1FFE7FEF757F9FFE770200190C0
:1021800040F2F310029040F20810C2F2000001A9E0
:102190000822FFF797FB18B1FFE7FEF745F9FFE7C5
:1021A00040F20810C2F20000FFF72AFB0EB080BD1B
:1021B00080B582B040F25010C2F20000019041F2AE
:1021C0000001C4F2010101604FF4E13141604FF4BC
:1021D000805181600021C1604FF4806202610C2255
:1021E00042618161C161FFF761FC18B1FFE7FEF751
:1021F0001BF9FFE702B080BDFFE7FEE7FFE7FEE760
:1022000088B0079006910592079800F007000490A7
:102210000498C0F10700052803D3FFE704200190CC
:1022200004E00498C0F107000190FFE701980390D3
:1022300004980430062803D8FFE70020009003E04C
:10224000049803380090FFE70098029006980399DD
:10225000012202FA01F101390840029B98400599D8
:102260009A40013A1140084308B070477047000097
:102270007047000080B582B0009000980138B0F13E
:10228000807F03D3FFE70120019019E00098013817
:102290004EF21401CEF2000108604FF0FF300F2122
:1022A00000F0EEFC4EF21801CEF2000100200860B2
:1022B0004EF21002CEF20002072111600190FFE7FA
:1022C000019802B080BD000080B5FEF7BFFA80BD66
:1022D00080B594B008A83021FEF73EF800200790A2
:1022E0000690059004900390FFE70020029043F6CB
:1022F0004000C4F20200016841F0805101600068B2
:1023000000F0805002900298FFE7FFE70020019064
:1023100047F20000C4F20000016841F4804101600E
:10232000006800F4804001900198FFE701200890C8
:102330004FF48030099002200E904FF480010F91ED
:1023400008211091A821119112900420139008A83F
:10235000FEF7F6FC18B1FFE7FEF766F8FFE70F207F
:10236000039002200490002005904FF4A0500690A6
:102370004FF48050079003A80421FEF711FB18B119
:10238000FFE7FEF751F8FFE714B080BD4EF6885125
:10239000CEF20001086840F4700008607047000049
:1023A00083B0029001910298006800900298002189
:1023B000C4F20101884225D0FFE70298B0F1804FB6
:1023C00020D0FFE7029840F20041C4F200018842A9
:1023D00018D0FFE7029840F60001C4F200018842DD
:1023E00010D0FFE7029840F60041C4F20001884295
:1023F00008D0FFE7029840F20041C4F20101884290
:102400000AD1FFE7009820F0700000900198416821
:10241000009808430090FFE702980021C4F20101F0
:10242000884255D0FFE70298B0F1804F50D0FFE7C7
:10243000029840F20041C4F20001884248D0FFE710
:10244000029840F60001C4F20001884240D0FFE744
:10245000029840F60041C4F20001884238D0FFE7FC
:10246000029840F20041C4F20101884230D0FFE7F7
:10247000029844F20001C4F20101884228D0FFE72B
:10248000029844F20041C4F20101884220D0FFE7E3
:10249000029844F60001C4F20101884218D0FFE717
:1024A000029841F60001C4F20001884210D0FFE713
:1024B000029841F60041C4F20001884208D0FFE7CB
:1024C000029842F20001C4F2000188420AD1FFE7FB
:1024D000009820F4407000900198C168009808436B
:1024E0000090FFE7009820F08000019949690843B7
:1024F0000090019880680299C8620198006802996A
:10250000886202980021C4F20101884208D0FFE7E6
:10251000029840F20041C4F20101884205D1FFE770
:102520000198006902990863FFE70299086840F082
:10253000040008600299012048610098029908602F
:1025400003B0704785B00490039102920193049800
:1025500080680090009820F47F40009003980299D2
:10256000019A41EA02210143009808430090009833
:102570000499886005B0704783B002900191029879
:1025800080680090009820F07000009001980099F9
:10259000084340F00700009000980299886003B05B
:1025A0007047000085B0049003910498006A019080
:1025B0000499086A20F001000862049840680090BD
:1025C000049880690290029820F0700002900298AE
:1025D00020F00300029003980168029808430290DB
:1025E000019820F002000190039881680198084347
:1025F000019004980021C4F20101884208D0FFE74D
:10260000049840F20041C4F2010188420ED1FFE774
:10261000019820F0080001900398C16801980843D0
:102620000190019820F004000190FFE70498002138
:10263000C4F20101884208D0FFE7049840F200414B
:10264000C4F20101884213D1FFE7009820F48070A2
:102650000090009820F40070009003984169009861
:102660000843009003988169009808430090FFE7B1
:10267000009804994860029804998861039840681A
:102680000499486301980499086205B070470000F6
:1026900085B0049003910498006A01900499086A37
:1026A00020F0100008620498406800900498806947
:1026B0000290029820F4E0400290029820F44070CA
:1026C000029003980168029840EA01200290019864
:1026D00020F02000019003988168019840EA0110E1
:1026E000019004980021C4F20101884208D0FFE75C
:1026F000049840F20041C4F2010188420FD1FFE783
:10270000019820F0800001900398C168019840EA88
:1027100001100190019820F040000190FFE704981B
:102720000021C4F20101884208D0FFE7049840F27A
:102730000041C4F20101884215D1FFE7009820F45E
:1027400080600090009820F4006000900398416938
:10275000009840EA8100009003988169009840EA5F
:1027600081000090FFE7009804994860029804995E
:102770008861039840680499886301980499086205
:1027800005B0704785B0049003910498006A0190E9
:102790000499086A20F480700862049840680090E8
:1027A0000498C0690290029820F07000029002988C
:1027B00020F00300029003980168029808430290F9
:1027C000019820F40070019003988168019840EA14
:1027D0000120019004980021C4F20101884208D030
:1027E000FFE7049840F20041C4F2010188420FD192
:1027F000FFE7019820F4006001900398C1680198F8
:1028000040EA01200190019820F480600190FFE7E8
:1028100004980021C4F20101884208D0FFE704981F
:1028200040F20041C4F20101884215D1FFE700984F
:1028300020F480500090009820F4005000900398FD
:102840004169009840EA011000900398816900985E
:1028500040EA01100090FFE7009804994860029850
:102860000499C861039840680499C8630198049961
:10287000086205B07047000085B004900391049889
:10288000006A01900499086A20F480500862049854
:10289000406800900498C0690290029820F4E040DB
:1028A0000290029820F44070029003980168029808
:1028B00040EA01200290019820F400500190039812
:1028C0008168019840EA0130019004980021C4F227
:1028D0000101884208D0FFE7049840F20041C4F2A9
:1028E000010188420BD1FFE7009820F4804000905E
:1028F00003984169009840EA81100090FFE7009832
:102900000499486002980499C86103984068049942
:10291000086401980499086205B0704785B0049076
:10292000039102920498006A00900499086A20F0CA
:1029300001000862049880690190019820F0F0007D
:1029400001900299019840EA01100190009820F04E
:102950000A00009003990098084300900198049998
:10296000886100980499086205B0704785B00490AA
:10297000039102920498006A00900499086A20F07A
:1029800010000862049880690190019820F470405A
:1029900001900299019840EA01300190009820F0DE
:1029A000A00000900399009840EA0110009001985F
:1029B0000499886100980499086205B07047000086
:1029C00084B00390FFE7FFE70398006850E8030F27
:1029D00020F490700290FFE702990398026842E8A1
:1029E00003100028F0D1FFE7FFE7FFE7FFE70398B8
:1029F000006850E8050F20F001000190FFE7019901
:102A00000398026842E805100028F0D1FFE7FFE7CD
:102A10000398006B012814D1FFE7FFE7FFE7039855
:102A2000006850E8030F20F010000090FFE70099C5
:102A30000398026842E803100028F0D1FFE7FFE79F
:102A4000FFE70399202081F84200039900200863E2
:102A500004B0704780B586B005900598006800699D
:102A600020F44050059A1168D26810430861059916
:102A700088680B694A69C969184310430843049080
:102A800005980068C06849F20C61884304990843BE
:102A900005990968C86005980068406920F440708D
:102AA000059A11689269104348610598006841F2DF
:102AB0000001C4F20101884209D0FFE705980068CF
:102AC00041F20041C4F20101884204D1FFE7FEF760
:102AD000B1F8039003E0FEF79BF80390FFE7059839
:102AE000C069B0F5004F29D1FFE703981921A0FB79
:102AF0000101059A1368029353685A00DB0FFDF732
:102B0000B3FB0299864648F21F53C5F2EB13AEFBA6
:102B10000320420910014FF0640C02FB1CEC32222E
:102B200002EBCC02A2FB0332F82303EA521300EBC0
:102B30004300C2F342121044886026E00398192132
:102B4000A0FB0101059A1368019353689A009B0F3B
:102B5000FDF78AFB0199844648F21F52C5F2EB1239
:102B6000ACFB02304309642003FB10CC322000EBA5
:102B70000C10A0FB0202F02000EA521000EB031040
:102B8000C2F3431210448860FFE706B080BD000026
:102B900080B586B0DDF820C0049003918DF80B203D
:102BA0000193FFE704980068006803990840401A01
:102BB000B0FA80F040099DF80B1088424DD1FFE734
:102BC00008980130002847D0FFE7FDF739FE01994A
:102BD000401A0899884203D8FFE7089820B9FFE710
:102BE00003208DF817003CE004980068C068400797
:102BF000002830D5FFE7039880282CD0FFE7039802
:102C0000402828D0FFE704980068006800F0080119
:102C10000120B0EBD10F1DD1FFE7FFE700200090AE
:102C2000049800680068009004980068406800906C
:102C30000098FFE70498FFF7C3FE04990820486452
:102C4000FFE70499002081F84000FFE701208DF89C
:102C5000170006E0FFE7FFE7A4E700208DF8170064
:102C6000FFE79DF8170006B080BD0000FFE7FEE714
:102C70004EF60C50CEF200000068C0F30220704700
:102C800082B08DF8070000919DF9070000280AD452
:102C9000FFE7009800019DF907104EF20042CEF2C6
:102CA000000288540BE0009800019DF8071001F025
:102CB0000F014EF61452CEF200028854FFE702B024
:102CC0007047000083B00290029800F00700009067
:102CD0004EF60C51CEF200010868019001984FF6B3
:102CE000FF02104001900198009A40EA0220002261
:102CF000C0F2FA52104301900198086003B0704787
:102D000080B584B000200390FDF7AEFDFFF7E0FA38
:102D1000FFF7C8F8FFF71AF9FFF7CCF9FFF75AF9F0
:102D2000FFF746FAFFE740F25010C2F200000190B0
:102D300040F20401C2F200010A2200924FF47A73B9
:102D4000FFF716F8009A019840F29811C2F20001BC
:102D500002914FF4FA73FEF76BFF02980078312866
:102D60000FD1FFE741F60040C4F202004FF40061CA
:102D7000FDF73AFD40F29811C2F200010020087000
:102D8000FFE7D0E7F1EE100A4FF6FF71C0F2C03155
:102D900020EA010040F04070E1EE100A70470000A8
:102DA00000000000000001020304060708090000FB
:102DB0000000010203040000D82D000800000020DC
:102DC00018000000C4010008F02D000818000020C1
:102DD00090070000E00100080024F400526F626FC9
:102DE0004D61737465720001100000000000000066
:040000050800018965
:00000001FF
