:020000040800F2
:10000000200400209D010008F91200084D1200088C
:10001000F5120008A90200089D1400080000000065
:100020000000000000000000000000006D13000848
:10003000AD0200080000000069130008C5130008A5
:10004000B7010008B7010008B7010008B7010008B0
:10005000B7010008B7010008B7010008B7010008A0
:10006000B7010008B7010008B7010008B701000890
:10007000B7010008B7010008B7010008B701000880
:10008000B7010008B7010008B7010008B701000870
:10009000B7010008B7010008B7010008B701000860
:1000A000B7010008B7010008B7010008B701000850
:1000B000B7010008B7010008B7010008B701000840
:1000C000B7010008B7010008B7010008B701000830
:1000D000B7010008B7010008B7010008B701000820
:1000E000B7010008B7010008B7010008B701000810
:1000F000B7010008B7010008B7010008B701000800
:10010000B7010008B7010008B7010008B7010008EF
:10011000B7010008B7010008B7010008B7010008DF
:10012000B7010008B7010008B7010008B7010008CF
:10013000B7010008B7010008B7010008B7010008BF
:10014000B7010008B7010008B7010008B7010008AF
:10015000B7010008B7010008B7010008B70100089F
:10016000B7010008B7010008B7010008B70100088F
:10017000B7010008B7010008B7010008000000003F
:10018000B7010008B7010008DFF80CD000F07AF8DA
:100190000048004731150008200400200648804729
:1001A00006480047FEE7FEE7FEE7FEE7FEE7FEE75C
:1001B000FEE7FEE7FEE7FEE7891400088901000874
:1001C0002DE9F05F0546002092469B46884606468C
:1001D000814640241BE0284641464746224600F01F
:1001E00041F853465A46C01A914110D31146184659
:1001F000224600F028F82D1A67EB01084F462246E8
:100200000120002100F01FF817EB00094E41201ECD
:10021000A4F10104DFDC484631462A464346BDE8E6
:10022000F09FD2B201E000F8012B491EFBD27047CB
:100230000022F6E710B513460A4604461946FFF7B2
:10024000F0FF204610BD202A04DB203A00FA02F11C
:10025000002070479140C2F1200320FA03F31943B4
:1002600090407047202A04DB203A21FA02F0002156
:10027000704721FA02F3D040C2F1200291400843B6
:1002800019467047064C074D06E0E06840F0010350
:1002900094E8070098471034AC42F6D3FFF778FF94
:1002A000A4160008C4160008FFE7FEE77047000028
:1002B00072B6FFE7FEE700008EB00D900C910020B3
:1002C0000A90099008900B90FFE70B980F2800F216
:1002D000CC81FFE70B99012088400A900C980068B8
:1002E0000A990840099009980A99884240F0B88113
:1002F000FFE70C98406800F00300012807D0FFE7F3
:100300000C98406800F0030002282FD1FFE70D98F9
:10031000806808900B984100032000FA01F10898CA
:10032000884308900C98C0680B99490000FA01F1C5
:1003300008980843089008980D9988600D984068BF
:1003400008900B99012000FA01F108988843089061
:100350000C984068C0F300100B9900FA01F108985E
:100360000843089008980D994860FFE70C9840688A
:1003700000F00300032818D0FFE70D98C06808902C
:100380000B984100032000FA01F108988843089077
:100390000C9880680B99490000FA01F1089808430D
:1003A000089008980D99C860FFE70C98406800F025
:1003B0000300022826D1FFE70D980B996FF0030286
:1003C00002EA51010844006A08900B9800F0070007
:1003D00081000F2000FA01F10898884308900C98DA
:1003E00000690B9901F00701890000FA01F10898F2
:1003F0000843089008980D990B9B02EA5302114498
:100400000862FFE70D98006808900B9841000320F0
:1004100000FA01F10898884308900C98406800F0B1
:1004200003000B99490000FA01F10898084308906D
:1004300008980D9908600C9880798007002800F0D2
:100440000E81FFE7FFE70020079043F64400C4F267
:100450000200016841F480410160006800F48040BE
:1004600007900798FFE70B9820F0030043F6080178
:10047000C4F20101405808900B9800F0030081007D
:100480000F2000FA01F10898884308900D98002188
:10049000C4F20201884203D1FFE7002006905EE02B
:1004A0000D9840F20041C4F20201884203D1FFE7F7
:1004B0000120059050E00D9840F60001C4F20201C1
:1004C000884203D1FFE70220049042E00D9840F6F5
:1004D0000041C4F20201884203D1FFE703200390E8
:1004E00034E00D9841F20001C4F20201884203D1C8
:1004F000FFE70420029026E00D9841F20041C4F28B
:100500000201884203D1FFE70520019018E00D9811
:1005100041F60001C4F20201884203D1FFE7062040
:1005200000900AE00D9941F60042C4F20202082050
:10053000914208BF07200090FFE700980190FFE775
:1005400001980290FFE702980390FFE70398049058
:10055000FFE704980590FFE705980690FFE70698E7
:10056000C0B20B9901F00301890000FA01F108986B
:100570000843089008980B9921F0030143F60802FC
:10058000C4F20102885043F60840C4F2010000683A
:10059000089009990898884308900C988079C006BB
:1005A000002805D5FFE70999089808430890FFE758
:1005B000089843F60841C4F20101086043F60C4074
:1005C000C4F20100006808900999089888430890CF
:1005D0000C9880798006002805D5FFE709990898CE
:1005E00008430890FFE7089843F60C41C4F2010164
:1005F000086043F60440C4F20100006808900999BD
:100600000898884308900C9880798007002805D5C1
:10061000FFE70999089808430890FFE7089843F610
:100620000441C4F20101086043F60040C4F2010035
:100630000068089009990898884308900C98807978
:10064000C00728B1FFE70999089808430890FFE719
:10065000089843F60041C4F201010860FFE7FFE794
:10066000FFE70B9801300B902FE60EB070470000AB
:1006700082B00190ADF8021001980069BDF8021037
:10068000084204D0FFE701208DF8010003E00020BC
:100690008DF80100FFE79DF8010002B070470000EF
:1006A00082B00190ADF802108DF801209DF8010094
:1006B00028B1FFE7BDF802000199886105E0BDF8A7
:1006C0000200000401998861FFE702B07047000052
:1006D00040F21800C2F200000068704740F20400C7
:1006E000C2F20000027840F21801C2F2000108686C
:1006F000104408607047000080B543F60041C4F222
:100700000201086840F400700860086840F48060E6
:100710000860086840F480700860032000F080F8EA
:100720000F2000F005F800F03BF8002080BD00002D
:1007300080B582B0009040F20000C2F20000006874
:1007400040F20401C2F200010A784FF47A71B1FB61
:10075000F2F1B0FBF1F000F071FD20B1FFE70120F4
:100760008DF8070018E000980F280DD8FFE70099D2
:100770004FF0FF30002200F039F8009840F20801F5
:10078000C2F20001086003E001208DF8070003E0D9
:1007900000208DF80700FFE79DF8070002B080BD3C
:1007A00082B0FFE70020019043F64400C4F202004B
:1007B000016841F480410160006800F480400190CC
:1007C0000198FFE7FFE70020009043F64000C4F2E5
:1007D0000200016841F080510160006800F0805023
:1007E00000900098FFE702B07047000080B586B027
:1007F0008DF81700049103920020029000F050FE43
:1008000002909DF91700019002980499039A00F054
:1008100075FD0146019800F04BFE06B080BD00005A
:1008200080B582B00190019800F064FE02B080BDF6
:1008300080B584B002900191029820B9FFE70120B1
:100840008DF80F0021E1019843F60041C4F2020146
:10085000096801F00701884212D9FFE7019943F6C0
:100860000040C4F202000170006800F00700019926
:10087000884204D0FFE701208DF80F0005E1FFE773
:1008800002980078800700282AD5FFE702980078B0
:100890004007002809D5FFE743F60801C4F202012A
:1008A000086840F4E0500860FFE70298007800070D
:1008B000002809D5FFE743F60801C4F202010868E1
:1008C00040F460400860FFE743F60801C4F202010B
:1008D000086820F0F000029A926810430860FFE771
:1008E00002980078C00700286ED0FFE702984068A1
:1008F000012811D1FFE743F60000C4F202000068AE
:1009000000F400310020B0EB514F04D1FFE701208B
:100910008DF80F00B9E02CE002984068022805D05D
:10092000FFE702984068032811D1FFE743F6000073
:10093000C4F20200006800F000710020B0EB516FBB
:1009400004D1FFE701208DF80F009EE010E043F690
:100950000000C4F20200006800F002010020B0EBC9
:10096000510F04D1FFE701208DF80F008DE0FFE764
:10097000FFE743F60801C4F20201086820F0030013
:10098000029A526810430860FFF7A2FE0090FFE74A
:1009900043F60800C4F20200006800F00C0002995F
:1009A0004968B0EB810F0ED0FFE7FFF791FE009989
:1009B000401A41F28931884204D3FFE703208DF8C1
:1009C0000F0062E0E4E7FFE7019843F60041C4F25C
:1009D0000201096801F00701884212D2FFE701997C
:1009E00043F60040C4F202000170006800F0070006
:1009F0000199884204D0FFE701208DF80F0044E000
:100A0000FFE702980078400700280CD5FFE743F67F
:100A10000801C4F20201086820F4E050029AD2688A
:100A200010430860FFE702980078000700280DD502
:100A3000FFE743F60801C4F20201086820F46040B1
:100A4000029A126940EAC2000860FFE700F022F84B
:100A500043F60801C4F202010968C9B20A0941F269
:100A60009261C0F60001895CC84040F20001C2F208
:100A70000001086040F20800C2F200000068FFF7C1
:100A800057FE00208DF80F00FFE79DF80F0004B01F
:100A900080BD000080B586B00020059004900390D2
:100AA000029043F60800C4F20200006800F00C0057
:100AB0000146019140B1FFE7019804280AD0FFE701
:100AC000019808280CD04FE042F20040C0F2F40038
:100AD00002904FE041F60030C0F2B700029049E0CA
:100AE00043F60400C4F20200016801F03F010591E1
:100AF00000684002002813D5FFE743F60400C4F263
:100B000002000068C0F3881041F60031C0F2B7015E
:100B1000A0FB0101059A0023FFF752FB049012E0AD
:100B200043F60400C4F202000068C0F3881042F2E9
:100B30000041C0F2F401A0FB0101059A0023FFF778
:100B40003FFB0490FFE743F60400C4F20200006894
:100B500000F44031022000EBD13003900498039957
:100B6000B0FBF1F0029005E042F20040C0F2F40068
:100B70000290FFE7029806B080BD000080B586B005
:100B80000490049820B9FFE701208DF8170050E386
:100B900004980078C007002800F0A580FFE743F61E
:100BA0000800C4F20200006800F00C00042813D012
:100BB000FFE743F60800C4F20200006800F00C00F2
:100BC00008281ED1FFE743F60400C4F202000068C3
:100BD0004002002815D5FFE743F60000C4F20200EA
:100BE000006800F400310020B0EB514F08D0FFE75F
:100BF0000498406820B9FFE701208DF8170018E33A
:100C000070E0FFE704984068B0F5803F09D1FFE746
:100C100043F60001C4F20201086840F48030086025
:100C200020E004984068B0F5A02F0DD1FFE743F60F
:100C30000001C4F20201086840F4802008600868DE
:100C400040F4803008600CE043F60001C4F2020179
:100C5000086820F480300860086820F4802008606C
:100C6000FFE7FFE7FFE704984068E8B1FFE7FFF719
:100C70002FFD0390FFE743F60000C4F20200006876
:100C800000F400310020B0EB514F0CD1FFE7FFF72B
:100C90001FFD0399401A652804D3FFE703208DF850
:100CA0001700C6E2E7E71CE0FFF712FD0390FFE73D
:100CB00043F60000C4F20200006800F40031002096
:100CC000B0EB514F0CD0FFE7FFF702FD0399401A3C
:100CD000652804D3FFE703208DF81700A9E2E7E7B2
:100CE000FFE7FFE7FFE7049800788007002840F15E
:100CF0009680FFE743F60800C4F20200006810F097
:100D00000C0F13D0FFE743F60800C4F2020000689E
:100D100000F00C0008282CD1FFE743F60400C4F2D1
:100D2000020000684002002823D4FFE743F60000D9
:100D3000C4F20200006800F002010020B0EB510F85
:100D400009D0FFE70498C068012804D0FFE701201C
:100D50008DF817006DE243F60001C4F20201086845
:100D600020F0F800049A126940EAC2000860FFE728
:100D700054E00498C06870B3FFE70021C4F2472133
:100D800001200860FFF7A4FC0390FFE743F6000092
:100D9000C4F20200006800F002010020B0EB510F25
:100DA0000CD1FFE7FFF794FC0399401A032804D302
:100DB000FFE703208DF817003BE2E7E743F6000169
:100DC000C4F20201086820F0F800049A126940EAAF
:100DD000C200086021E00021C4F247210020086021
:100DE000FFF776FC0390FFE743F60000C4F2020031
:100DF000006800F002010020B0EB510F0CD0FFE7BB
:100E0000FFF766FC0399401A032804D3FFE7032089
:100E10008DF817000DE2E7E7FFE7FFE7FFE704982B
:100E20000078000700284BD5FFE70498406918B305
:100E3000FFE740F68061C4F2472101200860FFF718
:100E400047FC0390FFE743F67400C4F20200006819
:100E500000F002010020B0EB510F0CD1FFE7FFF7CB
:100E600037FC0399401A032804D3FFE703208DF8C9
:100E70001700DEE1E7E722E040F68061C4F2472197
:100E800000200860FFF724FC0390FFE743F674009E
:100E9000C4F20200006800F002010020B0EB510F24
:100EA0000CD0FFE7FFF714FC0399401A032804D382
:100EB000FFE703208DF81700BBE1E7E7FFE7FFE757
:100EC000049800784007002840F1CE80FFE700201A
:100ED0008DF8070043F64000C4F202000068C0002D
:100EE000002815D4FFE7FFE70020009043F64000FC
:100EF000C4F20200016841F080510160006800F016
:100F0000805000900098FFE701208DF80700FFE770
:100F100047F20000C4F200000068C005002822D497
:100F2000FFE747F20001C4F20001086840F4807056
:100F30000860FFF7CDFB0390FFE747F20000C4F223
:100F400000000068C00500280CD4FFE7FFF7C0FBD5
:100F50000399401A032804D3FFE703208DF81700F4
:100F600067E1EAE7FFE7FFE704988068012809D115
:100F7000FFE743F67001C4F20201086840F0010087
:100F800008601FE00498806805280DD1FFE743F64C
:100F90007001C4F20201086840F0040008600868AB
:100FA00040F0010008600CE043F67001C4F2020159
:100FB000086820F001000860086820F0040008605C
:100FC000FFE7FFE7FFE704988068F8B1FFE7FFF766
:100FD0007FFB0390FFE743F67000C4F20200006855
:100FE00000F002010020B0EB510F0ED1FFE7FFF738
:100FF0006FFB0399401A41F28931884204D3FFE71D
:1010000003208DF8170014E1E5E71EE0FFF760FB11
:101010000390FFE743F67000C4F20200006800F09E
:1010200002010020B0EB510F0ED0FFE7FFF750FB9D
:101030000399401A41F28931884204D3FFE7032023
:101040008DF81700F5E0E5E7FFE79DF807000128B8
:1010500009D1FFE743F64001C4F20201086820F01D
:1010600080500860FFE7FFE704988069002800F0DF
:10107000DC80FFE743F60800C4F20200006800F0DD
:101080000C00082800F08580FFE70498806902289A
:101090005CD1FFE76021C4F2472100200860FFF720
:1010A00017FB0390FFE743F60000C4F2020000685C
:1010B00000F000710020B0EB516F0CD0FFE7FFF79C
:1010C00007FB0399401A032804D3FFE703208DF898
:1010D0001700AEE0E7E70499C869D1F820C04B6A71
:1010E0008A6A40EA0C0040EA8310D2034FF6FF738D
:1010F0009A43A2F580321043C96A40EA016043F680
:101100000401C4F2020108606021C4F247210120F9
:101110000860FFF7DDFA0390FFE743F60000C4F232
:101120000200006800F000710020B0EB516F0CD19C
:10113000FFE7FFF7CDFA0399401A032804D3FFE72E
:1011400003208DF8170074E0E7E721E06021C4F286
:10115000472100200860FFF7BBFA0390FFE743F642
:101160000000C4F20200006800F000710020B0EB43
:10117000516F0CD0FFE7FFF7ABFA0399401A032831
:1011800004D3FFE703208DF8170052E0E7E7FFE7FD
:101190004AE004988069012804D1FFE701208DF816
:1011A000170046E043F60400C4F202000068029013
:1011B00004988069012831D0FFE7029800F480008C
:1011C0000499C969884229D1FFE7029800F03F00DD
:1011D0000499096A884221D1FFE7029847F6C07155
:1011E00008400499496AB0EB811F17D1FFE70298C4
:1011F00000F440300499896AC9034FF6FF729143A5
:10120000A1F58031884209D1FFE7029800F07060B3
:101210000499C96AB0EB016F04D0FFE701208DF893
:10122000170006E0FFE7FFE7FFE700208DF8170053
:10123000FFE79DF8170006B080BD000080B582B0C2
:101240000190019800F094F802B080BDFFE7FEE73E
:1012500080B58CB000200B900A9009900890079000
:10126000FFE70020069043F63000C4F20200016858
:1012700041F001010160006800F00100069006984D
:10128000FFE7FFE70020059043F63000C4F20200BC
:10129000016841F080010160006800F08000059065
:1012A0000598FFE741F60040C4F2020001904FF4B8
:1012B000E051009100220392FFF7F2F9009A0198A1
:1012C0000399079201220292089209910A9107A9B3
:1012D0000491FEF7F1FF029A03980499079208908F
:1012E000022009900020C4F20200FEF7E5FF0CB0D6
:1012F00080BD0000FFE7FEE7FFE7FEE788B007904C
:1013000006910592079800F0070004900498C0F138
:101310000700052803D3FFE70420019004E00498A8
:10132000C0F107000190FFE7019803900498043092
:10133000062803D8FFE70020009003E00498033854
:101340000090FFE70098029006980399012202FAA4
:1013500001F101390840029B984005999A40013AF1
:101360001140084308B07047704700007047000004
:1013700080B582B0009000980138B0F1807F03D32F
:10138000FFE70120019019E0009801384EF21401A6
:10139000CEF2000108604FF0FF300F2100F088F816
:1013A0004EF21801CEF20001002008604EF2100249
:1013B000CEF20002072111600190FFE7019802B010
:1013C00080BD000080B5FFF789F980BD80B594B07D
:1013D00008A83021FEF72CFF00200790069005900A
:1013E00004900390FFE70020029043F64000C4F20F
:1013F0000200016841F080510160006800F08050F7
:1014000002900298FFE7FFE70020019047F20000FA
:10141000C4F20000016841F480410160006800F4FA
:10142000804001900198FFE7012008904FF4803040
:10143000099002200E904FF480010F910821109125
:10144000A821119112900420139008A8FFF796FB91
:1014500018B1FFE7FEF72CFFFFE70F2003900220F3
:101460000490002005904FF4A05006904FF4805057
:10147000079003A80421FFF7DBF918B1FFE7FEF797
:1014800017FFFFE714B080BD4EF68851CEF2000181
:10149000086840F47000086070470000FFE7FEE74E
:1014A0004EF60C50CEF200000068C0F302207047E8
:1014B00082B08DF8070000919DF9070000280AD43A
:1014C000FFE7009800019DF907104EF20042CEF2AE
:1014D000000288540BE0009800019DF8071001F00D
:1014E0000F014EF61452CEF200028854FFE702B00C
:1014F0007047000083B00290029800F0070000904F
:101500004EF60C51CEF200010868019001984FF69A
:10151000FF02104001900198009A40EA0220002248
:10152000C0F2FA52104301900198086003B070476E
:1015300080B582B000200190FFF7DEF8FFF746FF8C
:10154000FFF786FEFFE7FFF7C3F840F21401C2F28F
:10155000000108600020C4F202000121FFF788F8B2
:10156000014640F21000C2F2000001800088F8B984
:10157000FFE7FFE7FFF7ACF840F21401C2F2000109
:101580000968C831884201D2FFE7F3E740F2100052
:10159000C2F20000008850B9FFE740F21201C2F227
:1015A00000010878013818BF01200870FFE7FFE745
:1015B00040F21200C2F20000007868BBFFE741F67B
:1015C0000040C4F202004FF480510022FFF768F897
:1015D00040F21400C2F20000006844F6D351C1F298
:1015E0006201A0FB01104009C00750B1FFE741F6BE
:1015F0000040C4F202004FF400610122FFF750F8EE
:1016000009E041F60040C4F202004FF400610022FC
:10161000FFF746F8FFE72CE041F60040C4F2020075
:101620004FF400610022FFF73BF840F21400C2F2D1
:101630000000006844F6D351C1F26201A0FB011022
:101640004009C00750B1FFE741F60040C4F2020074
:101650004FF480510122FFF723F809E041F60040E2
:10166000C4F202004FF480510022FFF719F8FFE79F
:10167000FFE768E702E008C8121F08C1002AFAD194
:1016800070477047002001E001C1121F002AFBD102
:10169000704700000000000000000102030406077C
:1016A00008090000C8160008000000201000000013
:1016B00074160008D816000810000020100400005E
:1016C00084160008000000000024F400010000005F
:0816D000100000000000000002
:040000050800018965
:00000001FF
