:020000040800F2
:10000000C006002029020008251100083D10000844
:1000100021110008210400088D12000800000000D2
:100020000000000000000000000000002D1100088A
:100030002504000800000000291100083111000803
:10004000430200084302000843020008430200087C
:10005000430200084302000843020008430200086C
:10006000430200084302000843020008430200085C
:10007000430200084302000843020008430200084C
:10008000430200084302000843020008430200083C
:10009000430200084302000843020008430200082C
:1000A000430200084302000843020008430200081C
:1000B000430200084302000843020008430200080C
:1000C00043020008430200084302000843020008FC
:1000D00043020008430200084302000843020008EC
:1000E00043020008430200084302000843020008DC
:1000F00043020008430200084302000843020008CC
:1001000043020008430200084302000843020008BB
:1001100043020008430200084302000843020008AB
:10012000430200084302000843020008430200089B
:10013000430200084302000843020008430200088B
:10014000430200084302000843020008430200087B
:10015000430200084302000843020008430200086B
:10016000430200084302000843020008430200085B
:100170004302000843020008430200080000000098
:10018000430200084302000800F002F800F03CF8C7
:100190000AA090E8000C82448344AAF10107DA45E2
:1001A00001D100F031F8AFF2090EBAE80F0013F0F8
:1001B000010F18BFFB1A43F001031847C4110000D8
:1001C000E4110000103A24BF78C878C1FAD8520769
:1001D00024BF30C830C144BF04680C6070470000C1
:1001E0000023002400250026103A28BF78C1FBD840
:1001F000520728BF30C148BF0B6070471FB501F0E0
:10020000A9F81FBD10B510BD00F0D0F81146FFF7DA
:10021000F5FF01F03DF800F0EEF803B4FFF7F2FF50
:1002200003BC00F0F5F80000094880470948004782
:10023000FEE7FEE7FEE7FEE7FEE7FEE7FEE7FEE796
:10024000FEE7FEE704480549054A064B70470000F3
:100250003511000889010008C0000020C0060020F8
:10026000C0020020C002002053EA020C00F06980A6
:100270002DE9F04B4FF00006002B1FBFB3FA83F5BA
:1002800003FA05F424FA05F65E4012BF1643B2FAEB
:1002900082F502FA05F4C5F120051EBF22FA05FC1D
:1002A00044EA0C04203556EA044C4FEA144418BFC3
:1002B000641C4FF000084FF00009904271EB030CF2
:1002C00039D3002919BFB1FA81F701FA07F6B0FA5C
:1002D00080F700FA07F6C7F120071EBF20FA07FCD7
:1002E00046EA0C062037B6FBF4FCA7EB0507103FE7
:1002F00007F01F0BCBF120062CFA06F60CFA0BFBCD
:1003000044BFB3460026202FA4BF5E464FF0000B2B
:100310005BEA060C08BF4FF0010B19EB0B0948EB29
:100320000608ABFB027C06FB02CC0BFB03CCC01B1C
:1003300071EB0C01C1E70B46024641464846BDE859
:10034000F08B13B5084318BF4FF0FF300146AFF3F1
:100350000080BDE81C4070474FF0000200B5134616
:1003600094469646203922BFA0E80C50A0E80C50D5
:10037000B1F12001BFF4F7AF090728BFA0E80C5086
:1003800048BF0CC05DF804EB890028BF40F8042B7F
:1003900008BF704748BF20F8022B11F0804F18BFEC
:1003A00000F8012B7047704770477047754600F0A2
:1003B0002BF8AE4605006946534620F007008546F7
:1003C00018B020B5FFF73EFFBDE820404FF0000613
:1003D0004FF000074FF000084FF0000BAC46ACE8C0
:1003E000C009ACE8C009ACE8C009ACE8C00921F01C
:1003F00007018D46704710B50446AFF300802046D4
:10040000BDE81040FFF709BF00487047100000200A
:1004100001491820ABBEFEE726000200704700002D
:10042000FEE700007047000072B600BFFEE7000064
:100430002DE9F04F82B000F13E4241F6004502F155
:10044000FF77C4F20205082243F6004E4FEAB726B2
:10045000A84208BF0722C4F2010E072E38BF4FEA98
:10046000B7220125002600274FF00008009208E07F
:1004700008F101080437B8F1100F06F1020600F088
:10048000A7800C6805FA08F914EA090FF0D0D1F832
:1004900004B003220BF0030CACF10104B240012CB8
:1004A0006FEA020A10D88268CC6802EA0A02B440F5
:1004B000224382604268CBF3001422EA090204FA64
:1004C00008F42243426005E0BCF1030F02D14FF073
:1004D000030C20E0C2688C6802EA0A02B44022439E
:1004E000BCF1020FC26016D16FF0030202EA58029B
:1004F0000244D2F820C007F01C050F230C69AB4062
:100500002CEA030304FA05F52B431362D1F804B077
:1005100001250BF0030C02680CFA06F302EA0A024A
:100520001A431BF4403F0260A2D0002243F644036A
:100530000192C4F202031A684FF6084C42F480425A
:100540001A601A68CFF6FF7C02F480420192019A89
:1005500028F00302724452F80C3007F00C050F2407
:10056000AC40A343009C04FA05F52B4342F80C3041
:10057000DEF808204B6842EA090543F60C4CDC0221
:1005800058BF22EA0905CEF80850C4F2010CDCF885
:1005900000209C0242EA090558BF22EA0905CCF86E
:1005A0000050DEF804209C0342EA090558BF22EA05
:1005B0000905CEF80450DEF80020DB0342EA090505
:1005C00058BF22EA0905CEF80050012550E700BFC8
:1005D00002B0BDE8F08F0000002A08BF0904816165
:1005E0007047000040F2B800C2F200000068704797
:1005F00040F2000040F2B801C2F20000C2F2000175
:1006000000780A68104408607047000080B543F61F
:100610000040C4F20200016841F400710160016809
:1006200041F480610160016841F480710160032040
:1006300000F074F80F2000F005F800F027F8002013
:1006400080BD000070B540F20006C2F2000640F224
:1006500008013278C2F200014FF47A730968B3FBE3
:10066000F2F20446B1FBF2F1084600F007FB0F2C52
:100670004FF0010508D838B94FF0FF30214600226D
:10068000002500F01FF87460284670BD82B000207D
:1006900043F640010190C4F202014A6842F48042EC
:1006A0004A604A6802F480420192019A0090086808
:1006B00040F080500860086800F08050009000987A
:1006C00002B0704710B54EF60C5CCEF2000CDCF8B0
:1006D0000030C3F3022E8EF00704042C28BF04243C
:1006E000BEF103034FF0FF3E0EFA04F438BF0023BF
:1006F000A14399400EFA03F39A43114300F00F020D
:1007000000F160430901043A03F5644362440028A0
:1007100048BF02F10C03197010BD00004EF60C51D9
:10072000CEF200010A684FF6FF031A4060F30A2276
:1007300042F0806040F0FD70086070472DE9F041A4
:10074000002800F08B8043F60808C4F20208044633
:10075000D8F8F8030D4600F00700884207D288F861
:10076000F853D8F8F80300F00700A84276D12068C3
:10077000810717D5410705D5D8F8001041F4E0519D
:10078000C8F80010010705D5D8F8001041F4604101
:10079000C8F80010D8F80010A26821F0F001114349
:1007A000C8F80010C0073FD1D8F8F80300F00700E0
:1007B000A84207D988F8F853D8F8F80300F00700E2
:1007C000A8424BD12068410707D5D8F80010E2684D
:1007D00021F4E0511143C8F80010000708D5D8F8FB
:1007E0000000216920F4604040EAC100C8F8000020
:1007F00000F054F8D8F8001041F26E32C1F3031142
:10080000C0F60002515C40F2080220FA01F140F209
:100810000400C2F200000068C2F200021160FFF79B
:1008200011FF0020BDE8F0816068811E022907D217
:1008300058F8081C89015CBF0120BDE8F08111E077
:10084000012807D158F8081C89035CBF0120BDE8C6
:10085000F08107E058F8081C890703D40120BDE89F
:10086000F08100BFD8F8001021F003010843C8F858
:100870000000FFF7B7FE064641F28837D8F80000BF
:10088000616800F00C00B0EB810F8DD0FFF7AAFE7D
:10089000801BB842F2D90320BDE8F08110B543F6C1
:1008A0000404C4F20204606800F00C0008280BD0B5
:1008B000042819BF42F20040C0F2F40047F640009D
:1008C000C0F27D1010BD00BF206821682368490276
:1008D00047F64001C0F27D1100F03F02C3F38810DB
:1008E0005CBF42F20041C0F2F401A1FB0001002311
:1008F000FFF7BAFC21680222C1F3014102EB41017A
:10090000B0FBF1F010BD00002DE9F04182B00028ED
:1009100068D00446007843F60006C007C4F2020619
:100920000BD0B06800F00C00042840F09F803068C5
:10093000800302D56068002854D0207880071AD53B
:10094000B06810F00C0F09D0B06800F00C00082857
:1009500040F0A6807068400200F1A28030688007F5
:1009600002D5E06801283DD13068216920F0F80007
:1009700040EAC10030602078000737D42078400773
:100980004CD4A56955B3B06800F00C00082840F0BD
:10099000BB80012D26D07068E16900F480028A4294
:1009A00020D1216A00F03F028A421BD147F6C07174
:1009B000626A0140B1EB821F14D1A16A4FF6FF7346
:1009C000C903994300F44032A1F580318A4209D12C
:1009D000E16A00F07060B0EB016F03D1002002B05B
:1009E000BDE8F081012002B0BDE8F0816069002817
:1009F00040F20000C4F2472076D00121C0F8801EEA
:100A0000FFF7F0FD054600BF706F8007B6D4FFF713
:100A1000E9FD401B0228F7D9DDE000BF306C10F083
:100A200080580AD100200190306C40F08050306432
:100A3000306C00F080500190019847F20007C4F23A
:100A400000073868C00541D4386840F480703860C9
:100A5000FFF7C8FD054600BF3868C00536D4FFF76C
:100A6000C1FD401B0228F7D9B5E000BFB06800F017
:100A70000C00082803D1706840023FF558AF606849
:100A8000B0F5803F07D0B0F5A02F40F08D803068E2
:100A900040F480203060306840F4803030608DE079
:100AA000E068002852D00020C4F2472001210160F4
:100AB000FFF798FD054600BF306880073FF554AF4B
:100AC000FFF790FD401B0228F6D984E0A0680128BA
:100AD00005D005284ED1306F40F004003067306FEC
:100AE00040F0010030674FE00021C0F8801EFFF7A2
:100AF00079FD0546706F80077FF540AFFFF772FD07
:100B0000401B0228F6D966E00027C4F247270020E0
:100B10003866FFF767FD022D05460BD1306880016E
:100B20005ED5FFF75FFD401B02284FF00300F5D9AB
:100B300055E700BF306880017FF550AFFFF752FDE9
:100B4000401B02284FF00300F4D948E70020C4F20C
:100B5000472000210160FFF745FD0546306880070A
:100B60007FF509AFFFF73EFD401B02284FF0030061
:100B7000F4D934E7316F002821F001013167316F7A
:100B800021F0040131674DD0FFF72CFD054641F2FD
:100B9000883700BF306F800756D4FFF723FD401B16
:100BA000B842F7D917E000BF3168002821F480313E
:100BB0003160316821F4802131604FD0FFF712FDA0
:100BC000054600BF306880033FF5B7AEFFF70AFD6A
:100BD000401B6428F6D9032002B0BDE8F08100BFB5
:100BE00004F11C052FCD084340EA8210D9034FF6CB
:100BF000FF729143A1F5803140EA056008437060BF
:100C000001203866FFF7EEFC044600BF3068800123
:100C10003FF5E4AEFFF7E6FC001B02284FF00300AF
:100C2000F4D9DCE6FFF7DEFC054641F2883700BF69
:100C3000306F800708D5FFF7D5FC401BB8424FF056
:100C40000300F5D9CBE600BFB8F1000F7FF499AEF1
:100C5000306C20F08050306493E600BFFFF7C2FC98
:100C6000054600BF306880037FF567AEFFF7BAFC2A
:100C7000401B64284FF00300F4D9B0E6411E002069
:100C8000B0EB116F1CBF012070474EF21002CEF284
:100C9000000251604EF62351CEF20001F0230B709A
:100CA000072190601160704710B590F83C20012A30
:100CB0004FF0020251D080F83D200268D2F804E0E3
:100CC000D2F808C00C682EF07003234341F2FF7481
:100CD000C4F20004A24253600EDC40F2FF73C4F27F
:100CE00000039A4216DCB2F1804F2BD040F2004351
:100CF000C4F2000324E000BF40F2FF33C4F201035A
:100D00009A4213DC41F60003C4F200039A4219D060
:100D1000002313E040F60003C4F200039A4211D00E
:100D200040F60043C4F200030AE000BF44F20003AF
:100D3000C4F201039A4205D040F20043C4F2010319
:100D40009A4204D149682CF0800319439160012133
:100D5000002280F83D1080F83C20104610BD0000B5
:100D6000002804BF0120704710B5044690F83D00EC
:100D700028B9002084F83C00204600F01FF802202B
:100D800084F83D002068211D00F0DEF9012084F880
:100D9000460084F83E0084F83F0084F8400084F860
:100DA000410084F8420084F8430084F8440084F849
:100DB000450084F83D00002010BD000081B00068AF
:100DC0000021C4F20101884202D001B0704700BF87
:100DD0000020009043F64400C4F20200016841F094
:100DE00001010160006800F001000090009801B06E
:100DF0007047000090F83D1001291CBF012070478A
:100E0000022180F83D10006841F2FF72C168C4F20F
:100E10000002904241F00101C1600DDC40F2FF711F
:100E2000C4F20001884215DCB0F1804F2AD040F2B4
:100E30000041C4F2000123E040F2FF31C4F201019D
:100E4000884213DC41F60001C4F20001884219D047
:100E5000002113E040F60001C4F20001884211D0E5
:100E600040F60041C4F200010AE000BF44F2000174
:100E7000C4F20101884205D040F20041C4F20101F0
:100E8000884206D1816801F00701062904BF0020CD
:100E90007047016841F001010160002070470000C7
:100EA00080B590F83C20012A4FF0020200F0C28089
:100EB00080F83D20D0F800C04FF67772DCF808309B
:100EC00023EA0202CCF808200B684F2B28DC1F2BEA
:100ED00044DD202B45D0302B43D0402B40F0AC805C
:100EE000D1F804E0C968DCF82030DCF8202022F0DA
:100EF0000102CCF82020DCF8182022F0F00242EAAF
:100F0000011123F00A0242EA0E02CCF81810CCF8C4
:100F10002020DCF8081041F0470121F0300180E08A
:100F20006F2B27DDB3F5005F48D0B3F5805F7AD033
:100F3000702B40F08180D1E901E3C968DCF808201A
:100F400043EA0E0322F47F4243EA01211143CCF825
:100F50000810DCF8081041F0770162E00BB1102BAB
:100F60006AD1DCF8081021F07001194341F0070143
:100F700057E000BF502B35D0602B5DD1D1F804E095
:100F8000C968DCF82030DCF8202022F01002CCF810
:100F90002020DCF8182022F4704242EA013123F0CC
:100FA000A00242EA0E12CCF81810CCF82020DCF88F
:100FB000081041F0670121F0100132E0D1E901E3AE
:100FC000C968DCF8082043EA0E0322F47F4243EAB2
:100FD00001211143CCF80810DCF8081041F48041DD
:100FE0001FE000BFD1F804E0C968DCF82030DCF86D
:100FF000202022F00102CCF82020DCF8182022F07A
:10100000F00242EA011123F00A0242EA0E02CCF891
:101010001810CCF82020DCF8081041F0570121F01E
:101020002001CCF808100022012180F83D10002199
:1010300080F83C10104680BD0122F5E7FEE7000075
:1010400070B586B0002543F6300005950095C4F2D2
:101050000200016841F6004441F0010101600168AD
:10106000C4F2020401F001010091009900950168A9
:10107000002241F08001016000684FF4006100F03F
:1010800080000090009820464FF40066FFF7A4FA15
:101090000120CDE9020501A9204601960495FFF73C
:1010A000C7F906B070BD000080B586B040F2700090
:1010B00000220021C2F20000C4F2010244F24F6398
:1010C00042F20F7C0591CDE90311CDE90011C0E991
:1010D0000023C0E9021CC0E904118161FFF740FE52
:1010E000002818BFFFF7A0F94FF48050029040F29B
:1010F0007000C2F2000002A9FFF7D2FE002818BF5C
:10110000FFF792F940F27000C2F200006946FFF763
:10111000CBFD002818BFFFF787F906B080BD00009F
:10112000FEE70000FEE70000704700007047000087
:10113000FFF75EBA4EF68850CEF20000016841F427
:101140007001016070470000B0B540F6FF3E0568D1
:10115000C4F2000E40F2004C7045C4F2010C27DCD2
:10116000B0F1804F31D040F20043C4F20003984206
:101170002BD040F60003C4F20003984225D041F67C
:10118000FF73C4F2000398422ADC70453CDCB0F1E6
:10119000804F5FD040F20043C4F20003984259D020
:1011A00040F60003C4F20003984253D057E000BF5A
:1011B00040F60043C4F20003984206D0604504D0D4
:1011C0000023C4F201039842D9D14B6825F0700284
:1011D00043EA020541F6FF73C4F200039842D4DDEE
:1011E00043F6FF73C4F20103984221DC42F200038C
:1011F000C4F2000398422DD00023C4F201039842A8
:1012000028D0604526D02AE040F60043C4F200030F
:1012100098421FD041F60003C4F20003984219D04F
:1012200041F60043C4F20003984213D017E000BF18
:1012300044F20003C4F2010398420BD044F60003C9
:10124000C4F20103984205D044F20043C4F2010302
:10125000984204D1CB6825F4407243EA02050A683B
:101260008C684B69C46240F480648262644504BF48
:1012700009690163026825F0800142F00402194304
:101280000260012242610160B0BD0000FEE7000083
:1012900092B047F20005C4F20005FFF7B7F906ACBB
:1012A000201D2C21FFF758F8002643F64000059634
:1012B000CDE90366CDE901660096C4F2020001683B
:1012C00041F080510160006800F08050009000986B
:1012D0000096286840F480402860286800F4804028
:1012E00000900098022006900120099010200A909A
:1012F00020460C96FFF708FB10B172B6FEE700BF60
:101300000F20CDE9010601A80021CDE9036605966D
:10131000FFF714FA10B172B6FEE700BFFFF790FEB8
:10132000FFF7C2FE40F27004C2F200042046FFF74D
:1013300061FD05F5D63500BF20680022416AC06A0C
:10134000B1EB500F28464FF4006188BF0122FFF730
:1013500043F9F1E7F1EE100A4FF6FF71C0F2C03128
:1013600020EA010040F04070E1EE100A70470000F2
:101370000000000000000102030406070809000045
:10138000A01300080000002010000000C4010008A5
:10139000B013000810000020B0060000E0010008B3
:1013A00001000000100000000024F4000000000014
:040000050800018965
:00000001FF
